{
  "_format": "hh-sol-artifact-1",
  "contractName": "NFTContract",
  "sourceName": "contracts/NFTContract.sol",
  "abi": [
    {
      "inputs": [],
      "stateMutability": "nonpayable",
      "type": "constructor"
    },
    {
      "anonymous": false,
      "inputs": [
        {
          "indexed": true,
          "internalType": "address",
          "name": "owner",
          "type": "address"
        },
        {
          "indexed": true,
          "internalType": "address",
          "name": "approved",
          "type": "address"
        },
        {
          "indexed": true,
          "internalType": "uint256",
          "name": "tokenId",
          "type": "uint256"
        }
      ],
      "name": "Approval",
      "type": "event"
    },
    {
      "anonymous": false,
      "inputs": [
        {
          "indexed": true,
          "internalType": "address",
          "name": "owner",
          "type": "address"
        },
        {
          "indexed": true,
          "internalType": "address",
          "name": "operator",
          "type": "address"
        },
        {
          "indexed": false,
          "internalType": "bool",
          "name": "approved",
          "type": "bool"
        }
      ],
      "name": "ApprovalForAll",
      "type": "event"
    },
    {
      "anonymous": false,
      "inputs": [
        {
          "indexed": true,
          "internalType": "uint256",
          "name": "tokenId",
          "type": "uint256"
        },
        {
          "indexed": true,
          "internalType": "address",
          "name": "owner",
          "type": "address"
        }
      ],
      "name": "MintingEvent",
      "type": "event"
    },
    {
      "anonymous": false,
      "inputs": [
        {
          "indexed": true,
          "internalType": "address",
          "name": "from",
          "type": "address"
        },
        {
          "indexed": true,
          "internalType": "address",
          "name": "to",
          "type": "address"
        },
        {
          "indexed": true,
          "internalType": "uint256",
          "name": "tokenId",
          "type": "uint256"
        }
      ],
      "name": "Transfer",
      "type": "event"
    },
    {
      "inputs": [],
      "name": "DEFAULT_FRACTIONS_COUNT",
      "outputs": [
        {
          "internalType": "uint256",
          "name": "",
          "type": "uint256"
        }
      ],
      "stateMutability": "view",
      "type": "function"
    },
    {
      "inputs": [],
      "name": "MINIMUM_INITIAL_LIQUIDITY",
      "outputs": [
        {
          "internalType": "uint256",
          "name": "",
          "type": "uint256"
        }
      ],
      "stateMutability": "view",
      "type": "function"
    },
    {
      "inputs": [
        {
          "internalType": "address",
          "name": "to",
          "type": "address"
        },
        {
          "internalType": "uint256",
          "name": "tokenId",
          "type": "uint256"
        }
      ],
      "name": "approve",
      "outputs": [],
      "stateMutability": "nonpayable",
      "type": "function"
    },
    {
      "inputs": [
        {
          "internalType": "address",
          "name": "owner",
          "type": "address"
        }
      ],
      "name": "balanceOf",
      "outputs": [
        {
          "internalType": "uint256",
          "name": "",
          "type": "uint256"
        }
      ],
      "stateMutability": "view",
      "type": "function"
    },
    {
      "inputs": [
        {
          "internalType": "uint256",
          "name": "tokenId",
          "type": "uint256"
        },
        {
          "internalType": "uint256",
          "name": "authorCutPercent",
          "type": "uint256"
        }
      ],
      "name": "createPool",
      "outputs": [],
      "stateMutability": "payable",
      "type": "function"
    },
    {
      "inputs": [
        {
          "internalType": "address",
          "name": "",
          "type": "address"
        },
        {
          "internalType": "uint256",
          "name": "",
          "type": "uint256"
        }
      ],
      "name": "fractionBalances",
      "outputs": [
        {
          "internalType": "uint256",
          "name": "",
          "type": "uint256"
        }
      ],
      "stateMutability": "view",
      "type": "function"
    },
    {
      "inputs": [
        {
          "internalType": "uint256",
          "name": "tokenId",
          "type": "uint256"
        }
      ],
      "name": "getApproved",
      "outputs": [
        {
          "internalType": "address",
          "name": "",
          "type": "address"
        }
      ],
      "stateMutability": "view",
      "type": "function"
    },
    {
      "inputs": [
        {
          "internalType": "address",
          "name": "owner",
          "type": "address"
        },
        {
          "internalType": "address",
          "name": "operator",
          "type": "address"
        }
      ],
      "name": "isApprovedForAll",
      "outputs": [
        {
          "internalType": "bool",
          "name": "",
          "type": "bool"
        }
      ],
      "stateMutability": "view",
      "type": "function"
    },
    {
      "inputs": [],
      "name": "lastTokenId",
      "outputs": [
        {
          "internalType": "uint256",
          "name": "",
          "type": "uint256"
        }
      ],
      "stateMutability": "view",
      "type": "function"
    },
    {
      "inputs": [
        {
          "internalType": "string",
          "name": "_tokenURI",
          "type": "string"
        }
      ],
      "name": "mint",
      "outputs": [
        {
          "internalType": "uint256",
          "name": "",
          "type": "uint256"
        }
      ],
      "stateMutability": "nonpayable",
      "type": "function"
    },
    {
      "inputs": [],
      "name": "name",
      "outputs": [
        {
          "internalType": "string",
          "name": "",
          "type": "string"
        }
      ],
      "stateMutability": "view",
      "type": "function"
    },
    {
      "inputs": [
        {
          "internalType": "uint256",
          "name": "tokenId",
          "type": "uint256"
        }
      ],
      "name": "ownerOf",
      "outputs": [
        {
          "internalType": "address",
          "name": "",
          "type": "address"
        }
      ],
      "stateMutability": "view",
      "type": "function"
    },
    {
      "inputs": [
        {
          "internalType": "uint256",
          "name": "",
          "type": "uint256"
        }
      ],
      "name": "pool_data",
      "outputs": [
        {
          "internalType": "uint256",
          "name": "tokenId",
          "type": "uint256"
        },
        {
          "internalType": "uint256",
          "name": "poolId",
          "type": "uint256"
        },
        {
          "internalType": "bool",
          "name": "exists",
          "type": "bool"
        },
        {
          "internalType": "uint256",
          "name": "nft_fractions",
          "type": "uint256"
        },
        {
          "internalType": "uint256",
          "name": "token_liq",
          "type": "uint256"
        }
      ],
      "stateMutability": "view",
      "type": "function"
    },
    {
      "inputs": [
        {
          "internalType": "address",
          "name": "from",
          "type": "address"
        },
        {
          "internalType": "address",
          "name": "to",
          "type": "address"
        },
        {
          "internalType": "uint256",
          "name": "tokenId",
          "type": "uint256"
        }
      ],
      "name": "safeTransferFrom",
      "outputs": [],
      "stateMutability": "nonpayable",
      "type": "function"
    },
    {
      "inputs": [
        {
          "internalType": "address",
          "name": "from",
          "type": "address"
        },
        {
          "internalType": "address",
          "name": "to",
          "type": "address"
        },
        {
          "internalType": "uint256",
          "name": "tokenId",
          "type": "uint256"
        },
        {
          "internalType": "bytes",
          "name": "data",
          "type": "bytes"
        }
      ],
      "name": "safeTransferFrom",
      "outputs": [],
      "stateMutability": "nonpayable",
      "type": "function"
    },
    {
      "inputs": [
        {
          "internalType": "address",
          "name": "operator",
          "type": "address"
        },
        {
          "internalType": "bool",
          "name": "approved",
          "type": "bool"
        }
      ],
      "name": "setApprovalForAll",
      "outputs": [],
      "stateMutability": "nonpayable",
      "type": "function"
    },
    {
      "inputs": [
        {
          "internalType": "bytes4",
          "name": "interfaceId",
          "type": "bytes4"
        }
      ],
      "name": "supportsInterface",
      "outputs": [
        {
          "internalType": "bool",
          "name": "",
          "type": "bool"
        }
      ],
      "stateMutability": "view",
      "type": "function"
    },
    {
      "inputs": [],
      "name": "symbol",
      "outputs": [
        {
          "internalType": "string",
          "name": "",
          "type": "string"
        }
      ],
      "stateMutability": "view",
      "type": "function"
    },
    {
      "inputs": [
        {
          "internalType": "uint256",
          "name": "",
          "type": "uint256"
        }
      ],
      "name": "tokenToPoolMap",
      "outputs": [
        {
          "internalType": "uint256",
          "name": "",
          "type": "uint256"
        }
      ],
      "stateMutability": "view",
      "type": "function"
    },
    {
      "inputs": [
        {
          "internalType": "uint256",
          "name": "tokenId",
          "type": "uint256"
        }
      ],
      "name": "tokenURI",
      "outputs": [
        {
          "internalType": "string",
          "name": "",
          "type": "string"
        }
      ],
      "stateMutability": "view",
      "type": "function"
    },
    {
      "inputs": [
        {
          "internalType": "address",
          "name": "from",
          "type": "address"
        },
        {
          "internalType": "address",
          "name": "to",
          "type": "address"
        },
        {
          "internalType": "uint256",
          "name": "tokenId",
          "type": "uint256"
        }
      ],
      "name": "transferFrom",
      "outputs": [],
      "stateMutability": "nonpayable",
      "type": "function"
    }
  ],
  "bytecode": "0x60806040523480156200001157600080fd5b506040518060400160405280600581526020017f4e667465650000000000000000000000000000000000000000000000000000008152506040518060400160405280600381526020017f4e54450000000000000000000000000000000000000000000000000000000000815250816000908051906020019062000096929190620000f9565b508060019080519060200190620000af929190620000f9565b50505033600a60006101000a81548173ffffffffffffffffffffffffffffffffffffffff021916908373ffffffffffffffffffffffffffffffffffffffff1602179055506200020e565b8280546200010790620001a9565b90600052602060002090601f0160209004810192826200012b576000855562000177565b82601f106200014657805160ff191683800117855562000177565b8280016001018555821562000177579182015b828111156200017657825182559160200191906001019062000159565b5b5090506200018691906200018a565b5090565b5b80821115620001a55760008160009055506001016200018b565b5090565b60006002820490506001821680620001c257607f821691505b60208210811415620001d957620001d8620001df565b5b50919050565b7f4e487b7100000000000000000000000000000000000000000000000000000000600052602260045260246000fd5b6130b2806200021e6000396000f3fe60806040526004361061012a5760003560e01c806370a08231116100ab578063c67b8cc31161006f578063c67b8cc31461040b578063c87b56dd14610436578063d85d3d2714610473578063e985e9c5146104b0578063f3a1d95f146104ed578063f84ddf0b1461052a5761012a565b806370a082311461033557806374a110c21461037257806395d89b411461038e578063a22cb465146103b9578063b88d4fde146103e25761012a565b806323b872dd116100f257806323b872dd146102285780633729ae211461025157806342842e0e1461028e578063612883fb146102b75780636352211e146102f85761012a565b806301e7cb021461012f57806301ffc9a71461015a57806306fdde0314610197578063081812fc146101c2578063095ea7b3146101ff575b600080fd5b34801561013b57600080fd5b50610144610555565b60405161015191906127e4565b60405180910390f35b34801561016657600080fd5b50610181600480360381019061017c9190612120565b61055b565b60405161018e91906125a7565b60405180910390f35b3480156101a357600080fd5b506101ac61063d565b6040516101b991906125c2565b60405180910390f35b3480156101ce57600080fd5b506101e960048036038101906101e491906121b7565b6106cf565b6040516101f69190612540565b60405180910390f35b34801561020b57600080fd5b50610226600480360381019061022191906120e4565b610715565b005b34801561023457600080fd5b5061024f600480360381019061024a9190611fde565b61082d565b005b34801561025d57600080fd5b50610278600480360381019061027391906121b7565b61088d565b60405161028591906127e4565b60405180910390f35b34801561029a57600080fd5b506102b560048036038101906102b09190611fde565b6108a5565b005b3480156102c357600080fd5b506102de60048036038101906102d991906121b7565b6108c5565b6040516102ef9594939291906127ff565b60405180910390f35b34801561030457600080fd5b5061031f600480360381019061031a91906121b7565b610908565b60405161032c9190612540565b60405180910390f35b34801561034157600080fd5b5061035c60048036038101906103579190611f79565b6109ba565b60405161036991906127e4565b60405180910390f35b61038c600480360381019061038791906121e0565b610a72565b005b34801561039a57600080fd5b506103a3610d06565b6040516103b091906125c2565b60405180910390f35b3480156103c557600080fd5b506103e060048036038101906103db91906120a8565b610d98565b005b3480156103ee57600080fd5b506104096004803603810190610404919061202d565b610dae565b005b34801561041757600080fd5b50610420610e10565b60405161042d91906127e4565b60405180910390f35b34801561044257600080fd5b5061045d600480360381019061045891906121b7565b610e15565b60405161046a91906125c2565b60405180910390f35b34801561047f57600080fd5b5061049a60048036038101906104959190612172565b610f28565b6040516104a791906127e4565b60405180910390f35b3480156104bc57600080fd5b506104d760048036038101906104d29190611fa2565b610fe8565b6040516104e491906125a7565b60405180910390f35b3480156104f957600080fd5b50610514600480360381019061050f91906120e4565b61107c565b60405161052191906127e4565b60405180910390f35b34801561053657600080fd5b5061053f6110a1565b60405161054c91906127e4565b60405180910390f35b61271081565b60007f80ac58cd000000000000000000000000000000000000000000000000000000007bffffffffffffffffffffffffffffffffffffffffffffffffffffffff1916827bffffffffffffffffffffffffffffffffffffffffffffffffffffffff1916148061062657507f5b5e139f000000000000000000000000000000000000000000000000000000007bffffffffffffffffffffffffffffffffffffffffffffffffffffffff1916827bffffffffffffffffffffffffffffffffffffffffffffffffffffffff1916145b806106365750610635826110b2565b5b9050919050565b60606000805461064c90612ab6565b80601f016020809104026020016040519081016040528092919081815260200182805461067890612ab6565b80156106c55780601f1061069a576101008083540402835291602001916106c5565b820191906000526020600020905b8154815290600101906020018083116106a857829003601f168201915b5050505050905090565b60006106da8261111c565b6004600083815260200190815260200160002060009054906101000a900473ffffffffffffffffffffffffffffffffffffffff169050919050565b600061072082610908565b90508073ffffffffffffffffffffffffffffffffffffffff168373ffffffffffffffffffffffffffffffffffffffff161415610791576040517f08c379a000000000000000000000000000000000000000000000000000000000815260040161078890612764565b60405180910390fd5b8073ffffffffffffffffffffffffffffffffffffffff166107b0611167565b73ffffffffffffffffffffffffffffffffffffffff1614806107df57506107de816107d9611167565b610fe8565b5b61081e576040517f08c379a000000000000000000000000000000000000000000000000000000000815260040161081590612704565b60405180910390fd5b610828838361116f565b505050565b61083e610838611167565b82611228565b61087d576040517f08c379a0000000000000000000000000000000000000000000000000000000008152600401610874906127c4565b60405180910390fd5b6108888383836112bd565b505050565b600c6020528060005260406000206000915090505481565b6108c083838360405180602001604052806000815250610dae565b505050565b600b6020528060005260406000206000915090508060000154908060010154908060020160009054906101000a900460ff16908060030154908060040154905085565b6000806002600084815260200190815260200160002060009054906101000a900473ffffffffffffffffffffffffffffffffffffffff169050600073ffffffffffffffffffffffffffffffffffffffff168173ffffffffffffffffffffffffffffffffffffffff1614156109b1576040517f08c379a00000000000000000000000000000000000000000000000000000000081526004016109a890612744565b60405180910390fd5b80915050919050565b60008073ffffffffffffffffffffffffffffffffffffffff168273ffffffffffffffffffffffffffffffffffffffff161415610a2b576040517f08c379a0000000000000000000000000000000000000000000000000000000008152600401610a22906126c4565b60405180910390fd5b600360008373ffffffffffffffffffffffffffffffffffffffff1673ffffffffffffffffffffffffffffffffffffffff168152602001908152602001600020549050919050565b81610a7d6007611524565b811115610abf576040517f08c379a0000000000000000000000000000000000000000000000000000000008152600401610ab690612784565b60405180910390fd5b6064821115610b03576040517f08c379a0000000000000000000000000000000000000000000000000000000008152600401610afa906127a4565b60405180910390fd5b60143411610b46576040517f08c379a0000000000000000000000000000000000000000000000000000000008152600401610b3d906125e4565b60405180910390fd5b610b4f83610908565b73ffffffffffffffffffffffffffffffffffffffff163373ffffffffffffffffffffffffffffffffffffffff1614610bbc576040517f08c379a0000000000000000000000000000000000000000000000000000000008152600401610bb390612664565b60405180910390fd5b610bc733308561082d565b610bd16008611532565b6000610bdd6008611524565b90506000606484612710610bf19190612972565b610bfb9190612941565b90506040518060a0016040528086815260200183815260200160011515815260200182612710610c2b91906129cc565b815260200134815250600b6000848152602001908152602001600020600082015181600001556020820151816001015560408201518160020160006101000a81548160ff021916908315150217905550606082015181600301556080820151816004015590505081600c60008781526020019081526020016000208190555080600d60003373ffffffffffffffffffffffffffffffffffffffff1673ffffffffffffffffffffffffffffffffffffffff1681526020019081526020016000206000878152602001908152602001600020819055505050505050565b606060018054610d1590612ab6565b80601f0160208091040260200160405190810160405280929190818152602001828054610d4190612ab6565b8015610d8e5780601f10610d6357610100808354040283529160200191610d8e565b820191906000526020600020905b815481529060010190602001808311610d7157829003601f168201915b5050505050905090565b610daa610da3611167565b8383611548565b5050565b610dbf610db9611167565b83611228565b610dfe576040517f08c379a0000000000000000000000000000000000000000000000000000000008152600401610df5906127c4565b60405180910390fd5b610e0a848484846116b5565b50505050565b601481565b6060610e208261111c565b6000600660008481526020019081526020016000208054610e4090612ab6565b80601f0160208091040260200160405190810160405280929190818152602001828054610e6c90612ab6565b8015610eb95780601f10610e8e57610100808354040283529160200191610eb9565b820191906000526020600020905b815481529060010190602001808311610e9c57829003601f168201915b505050505090506000610eca611711565b9050600081511415610ee0578192505050610f23565b600082511115610f15578082604051602001610efd92919061251c565b60405160208183030381529060405292505050610f23565b610f1e84611728565b925050505b919050565b6000610f346007611532565b6000610f406007611524565b9050610f4c3382611790565b610f9a8185858080601f016020809104026020016040519081016040528093929190818152602001838380828437600081840152601f19601f8201169050808301925050505050505061196a565b3373ffffffffffffffffffffffffffffffffffffffff16817f394567d00aaa992bb8ad351eeef7d57db51a0e54af3d224f7831331df65b4cf560405160405180910390a38091505092915050565b6000600560008473ffffffffffffffffffffffffffffffffffffffff1673ffffffffffffffffffffffffffffffffffffffff16815260200190815260200160002060008373ffffffffffffffffffffffffffffffffffffffff1673ffffffffffffffffffffffffffffffffffffffff16815260200190815260200160002060009054906101000a900460ff16905092915050565b600d602052816000526040600020602052806000526040600020600091509150505481565b60006110ad6007611524565b905090565b60007f01ffc9a7000000000000000000000000000000000000000000000000000000007bffffffffffffffffffffffffffffffffffffffffffffffffffffffff1916827bffffffffffffffffffffffffffffffffffffffffffffffffffffffff1916149050919050565b611125816119de565b611164576040517f08c379a000000000000000000000000000000000000000000000000000000000815260040161115b90612744565b60405180910390fd5b50565b600033905090565b816004600083815260200190815260200160002060006101000a81548173ffffffffffffffffffffffffffffffffffffffff021916908373ffffffffffffffffffffffffffffffffffffffff160217905550808273ffffffffffffffffffffffffffffffffffffffff166111e283610908565b73ffffffffffffffffffffffffffffffffffffffff167f8c5be1e5ebec7d5bd14f71427d1e84f3dd0314c0f7b2291e5b200ac8c7c3b92560405160405180910390a45050565b60008061123483610908565b90508073ffffffffffffffffffffffffffffffffffffffff168473ffffffffffffffffffffffffffffffffffffffff16148061127657506112758185610fe8565b5b806112b457508373ffffffffffffffffffffffffffffffffffffffff1661129c846106cf565b73ffffffffffffffffffffffffffffffffffffffff16145b91505092915050565b8273ffffffffffffffffffffffffffffffffffffffff166112dd82610908565b73ffffffffffffffffffffffffffffffffffffffff1614611333576040517f08c379a000000000000000000000000000000000000000000000000000000000815260040161132a90612624565b60405180910390fd5b600073ffffffffffffffffffffffffffffffffffffffff168273ffffffffffffffffffffffffffffffffffffffff1614156113a3576040517f08c379a000000000000000000000000000000000000000000000000000000000815260040161139a90612684565b60405180910390fd5b6113ae838383611a4a565b6113b960008261116f565b6001600360008573ffffffffffffffffffffffffffffffffffffffff1673ffffffffffffffffffffffffffffffffffffffff168152602001908152602001600020600082825461140991906129cc565b925050819055506001600360008473ffffffffffffffffffffffffffffffffffffffff1673ffffffffffffffffffffffffffffffffffffffff168152602001908152602001600020600082825461146091906128eb565b92505081905550816002600083815260200190815260200160002060006101000a81548173ffffffffffffffffffffffffffffffffffffffff021916908373ffffffffffffffffffffffffffffffffffffffff160217905550808273ffffffffffffffffffffffffffffffffffffffff168473ffffffffffffffffffffffffffffffffffffffff167fddf252ad1be2c89b69c2b068fc378daa952ba7f163c4a11628f55a4df523b3ef60405160405180910390a461151f838383611a4f565b505050565b600081600001549050919050565b6001816000016000828254019250508190555050565b8173ffffffffffffffffffffffffffffffffffffffff168373ffffffffffffffffffffffffffffffffffffffff1614156115b7576040517f08c379a00000000000000000000000000000000000000000000000000000000081526004016115ae906126a4565b60405180910390fd5b80600560008573ffffffffffffffffffffffffffffffffffffffff1673ffffffffffffffffffffffffffffffffffffffff16815260200190815260200160002060008473ffffffffffffffffffffffffffffffffffffffff1673ffffffffffffffffffffffffffffffffffffffff16815260200190815260200160002060006101000a81548160ff0219169083151502179055508173ffffffffffffffffffffffffffffffffffffffff168373ffffffffffffffffffffffffffffffffffffffff167f17307eab39ab6107e8899845ad3d59bd9653f200f220920489ca2b5937696c31836040516116a891906125a7565b60405180910390a3505050565b6116c08484846112bd565b6116cc84848484611a54565b61170b576040517f08c379a000000000000000000000000000000000000000000000000000000000815260040161170290612604565b60405180910390fd5b50505050565b606060405180602001604052806000815250905090565b60606117338261111c565b600061173d611711565b9050600081511161175d5760405180602001604052806000815250611788565b8061176784611beb565b60405160200161177892919061251c565b6040516020818303038152906040525b915050919050565b600073ffffffffffffffffffffffffffffffffffffffff168273ffffffffffffffffffffffffffffffffffffffff161415611800576040517f08c379a00000000000000000000000000000000000000000000000000000000081526004016117f790612724565b60405180910390fd5b611809816119de565b15611849576040517f08c379a000000000000000000000000000000000000000000000000000000000815260040161184090612644565b60405180910390fd5b61185560008383611a4a565b6001600360008473ffffffffffffffffffffffffffffffffffffffff1673ffffffffffffffffffffffffffffffffffffffff16815260200190815260200160002060008282546118a591906128eb565b92505081905550816002600083815260200190815260200160002060006101000a81548173ffffffffffffffffffffffffffffffffffffffff021916908373ffffffffffffffffffffffffffffffffffffffff160217905550808273ffffffffffffffffffffffffffffffffffffffff16600073ffffffffffffffffffffffffffffffffffffffff167fddf252ad1be2c89b69c2b068fc378daa952ba7f163c4a11628f55a4df523b3ef60405160405180910390a461196660008383611a4f565b5050565b611973826119de565b6119b2576040517f08c379a00000000000000000000000000000000000000000000000000000000081526004016119a9906126e4565b60405180910390fd5b806006600084815260200190815260200160002090805190602001906119d9929190611dbb565b505050565b60008073ffffffffffffffffffffffffffffffffffffffff166002600084815260200190815260200160002060009054906101000a900473ffffffffffffffffffffffffffffffffffffffff1673ffffffffffffffffffffffffffffffffffffffff1614159050919050565b505050565b505050565b6000611a758473ffffffffffffffffffffffffffffffffffffffff16611d98565b15611bde578373ffffffffffffffffffffffffffffffffffffffff1663150b7a02611a9e611167565b8786866040518563ffffffff1660e01b8152600401611ac0949392919061255b565b602060405180830381600087803b158015611ada57600080fd5b505af1925050508015611b0b57506040513d601f19601f82011682018060405250810190611b089190612149565b60015b611b8e573d8060008114611b3b576040519150601f19603f3d011682016040523d82523d6000602084013e611b40565b606091505b50600081511415611b86576040517f08c379a0000000000000000000000000000000000000000000000000000000008152600401611b7d90612604565b60405180910390fd5b805181602001fd5b63150b7a0260e01b7bffffffffffffffffffffffffffffffffffffffffffffffffffffffff1916817bffffffffffffffffffffffffffffffffffffffffffffffffffffffff191614915050611be3565b600190505b949350505050565b60606000821415611c33576040518060400160405280600181526020017f30000000000000000000000000000000000000000000000000000000000000008152509050611d93565b600082905060005b60008214611c65578080611c4e90612b19565b915050600a82611c5e9190612941565b9150611c3b565b60008167ffffffffffffffff811115611ca7577f4e487b7100000000000000000000000000000000000000000000000000000000600052604160045260246000fd5b6040519080825280601f01601f191660200182016040528015611cd95781602001600182028036833780820191505090505b5090505b60008514611d8c57600182611cf291906129cc565b9150600a85611d019190612b62565b6030611d0d91906128eb565b60f81b818381518110611d49577f4e487b7100000000000000000000000000000000000000000000000000000000600052603260045260246000fd5b60200101907effffffffffffffffffffffffffffffffffffffffffffffffffffffffffffff1916908160001a905350600a85611d859190612941565b9450611cdd565b8093505050505b919050565b6000808273ffffffffffffffffffffffffffffffffffffffff163b119050919050565b828054611dc790612ab6565b90600052602060002090601f016020900481019282611de95760008555611e30565b82601f10611e0257805160ff1916838001178555611e30565b82800160010185558215611e30579182015b82811115611e2f578251825591602001919060010190611e14565b5b509050611e3d9190611e41565b5090565b5b80821115611e5a576000816000905550600101611e42565b5090565b6000611e71611e6c84612877565b612852565b905082815260208101848484011115611e8957600080fd5b611e94848285612a74565b509392505050565b600081359050611eab81613020565b92915050565b600081359050611ec081613037565b92915050565b600081359050611ed58161304e565b92915050565b600081519050611eea8161304e565b92915050565b600082601f830112611f0157600080fd5b8135611f11848260208601611e5e565b91505092915050565b60008083601f840112611f2c57600080fd5b8235905067ffffffffffffffff811115611f4557600080fd5b602083019150836001820283011115611f5d57600080fd5b9250929050565b600081359050611f7381613065565b92915050565b600060208284031215611f8b57600080fd5b6000611f9984828501611e9c565b91505092915050565b60008060408385031215611fb557600080fd5b6000611fc385828601611e9c565b9250506020611fd485828601611e9c565b9150509250929050565b600080600060608486031215611ff357600080fd5b600061200186828701611e9c565b935050602061201286828701611e9c565b925050604061202386828701611f64565b9150509250925092565b6000806000806080858703121561204357600080fd5b600061205187828801611e9c565b945050602061206287828801611e9c565b935050604061207387828801611f64565b925050606085013567ffffffffffffffff81111561209057600080fd5b61209c87828801611ef0565b91505092959194509250565b600080604083850312156120bb57600080fd5b60006120c985828601611e9c565b92505060206120da85828601611eb1565b9150509250929050565b600080604083850312156120f757600080fd5b600061210585828601611e9c565b925050602061211685828601611f64565b9150509250929050565b60006020828403121561213257600080fd5b600061214084828501611ec6565b91505092915050565b60006020828403121561215b57600080fd5b600061216984828501611edb565b91505092915050565b6000806020838503121561218557600080fd5b600083013567ffffffffffffffff81111561219f57600080fd5b6121ab85828601611f1a565b92509250509250929050565b6000602082840312156121c957600080fd5b60006121d784828501611f64565b91505092915050565b600080604083850312156121f357600080fd5b600061220185828601611f64565b925050602061221285828601611f64565b9150509250929050565b61222581612a00565b82525050565b61223481612a12565b82525050565b6000612245826128a8565b61224f81856128be565b935061225f818560208601612a83565b61226881612c4f565b840191505092915050565b600061227e826128b3565b61228881856128cf565b9350612298818560208601612a83565b6122a181612c4f565b840191505092915050565b60006122b7826128b3565b6122c181856128e0565b93506122d1818560208601612a83565b80840191505092915050565b60006122ea601d836128cf565b91506122f582612c60565b602082019050919050565b600061230d6032836128cf565b915061231882612c89565b604082019050919050565b60006123306025836128cf565b915061233b82612cd8565b604082019050919050565b6000612353601c836128cf565b915061235e82612d27565b602082019050919050565b6000612376601c836128cf565b915061238182612d50565b602082019050919050565b60006123996024836128cf565b91506123a482612d79565b604082019050919050565b60006123bc6019836128cf565b91506123c782612dc8565b602082019050919050565b60006123df6029836128cf565b91506123ea82612df1565b604082019050919050565b6000612402602e836128cf565b915061240d82612e40565b604082019050919050565b6000612425603e836128cf565b915061243082612e8f565b604082019050919050565b60006124486020836128cf565b915061245382612ede565b602082019050919050565b600061246b6018836128cf565b915061247682612f07565b602082019050919050565b600061248e6021836128cf565b915061249982612f30565b604082019050919050565b60006124b16010836128cf565b91506124bc82612f7f565b602082019050919050565b60006124d4601b836128cf565b91506124df82612fa8565b602082019050919050565b60006124f7602e836128cf565b915061250282612fd1565b604082019050919050565b61251681612a6a565b82525050565b600061252882856122ac565b915061253482846122ac565b91508190509392505050565b6000602082019050612555600083018461221c565b92915050565b6000608082019050612570600083018761221c565b61257d602083018661221c565b61258a604083018561250d565b818103606083015261259c818461223a565b905095945050505050565b60006020820190506125bc600083018461222b565b92915050565b600060208201905081810360008301526125dc8184612273565b905092915050565b600060208201905081810360008301526125fd816122dd565b9050919050565b6000602082019050818103600083015261261d81612300565b9050919050565b6000602082019050818103600083015261263d81612323565b9050919050565b6000602082019050818103600083015261265d81612346565b9050919050565b6000602082019050818103600083015261267d81612369565b9050919050565b6000602082019050818103600083015261269d8161238c565b9050919050565b600060208201905081810360008301526126bd816123af565b9050919050565b600060208201905081810360008301526126dd816123d2565b9050919050565b600060208201905081810360008301526126fd816123f5565b9050919050565b6000602082019050818103600083015261271d81612418565b9050919050565b6000602082019050818103600083015261273d8161243b565b9050919050565b6000602082019050818103600083015261275d8161245e565b9050919050565b6000602082019050818103600083015261277d81612481565b9050919050565b6000602082019050818103600083015261279d816124a4565b9050919050565b600060208201905081810360008301526127bd816124c7565b9050919050565b600060208201905081810360008301526127dd816124ea565b9050919050565b60006020820190506127f9600083018461250d565b92915050565b600060a082019050612814600083018861250d565b612821602083018761250d565b61282e604083018661222b565b61283b606083018561250d565b612848608083018461250d565b9695505050505050565b600061285c61286d565b90506128688282612ae8565b919050565b6000604051905090565b600067ffffffffffffffff82111561289257612891612c20565b5b61289b82612c4f565b9050602081019050919050565b600081519050919050565b600081519050919050565b600082825260208201905092915050565b600082825260208201905092915050565b600081905092915050565b60006128f682612a6a565b915061290183612a6a565b9250827fffffffffffffffffffffffffffffffffffffffffffffffffffffffffffffffff0382111561293657612935612b93565b5b828201905092915050565b600061294c82612a6a565b915061295783612a6a565b92508261296757612966612bc2565b5b828204905092915050565b600061297d82612a6a565b915061298883612a6a565b9250817fffffffffffffffffffffffffffffffffffffffffffffffffffffffffffffffff04831182151516156129c1576129c0612b93565b5b828202905092915050565b60006129d782612a6a565b91506129e283612a6a565b9250828210156129f5576129f4612b93565b5b828203905092915050565b6000612a0b82612a4a565b9050919050565b60008115159050919050565b60007fffffffff0000000000000000000000000000000000000000000000000000000082169050919050565b600073ffffffffffffffffffffffffffffffffffffffff82169050919050565b6000819050919050565b82818337600083830152505050565b60005b83811015612aa1578082015181840152602081019050612a86565b83811115612ab0576000848401525b50505050565b60006002820490506001821680612ace57607f821691505b60208210811415612ae257612ae1612bf1565b5b50919050565b612af182612c4f565b810181811067ffffffffffffffff82111715612b1057612b0f612c20565b5b80604052505050565b6000612b2482612a6a565b91507fffffffffffffffffffffffffffffffffffffffffffffffffffffffffffffffff821415612b5757612b56612b93565b5b600182019050919050565b6000612b6d82612a6a565b9150612b7883612a6a565b925082612b8857612b87612bc2565b5b828206905092915050565b7f4e487b7100000000000000000000000000000000000000000000000000000000600052601160045260246000fd5b7f4e487b7100000000000000000000000000000000000000000000000000000000600052601260045260246000fd5b7f4e487b7100000000000000000000000000000000000000000000000000000000600052602260045260246000fd5b7f4e487b7100000000000000000000000000000000000000000000000000000000600052604160045260246000fd5b6000601f19601f8301169050919050565b7f4e6f20696e697469616c206c69717569646974792070726f7669646564000000600082015250565b7f4552433732313a207472616e7366657220746f206e6f6e20455243373231526560008201527f63656976657220696d706c656d656e7465720000000000000000000000000000602082015250565b7f4552433732313a207472616e736665722066726f6d20696e636f72726563742060008201527f6f776e6572000000000000000000000000000000000000000000000000000000602082015250565b7f4552433732313a20746f6b656e20616c7265616479206d696e74656400000000600082015250565b7f4f6e6c79206f776e65722063616e206c69737420616e20617373657400000000600082015250565b7f4552433732313a207472616e7366657220746f20746865207a65726f2061646460008201527f7265737300000000000000000000000000000000000000000000000000000000602082015250565b7f4552433732313a20617070726f766520746f2063616c6c657200000000000000600082015250565b7f4552433732313a2061646472657373207a65726f206973206e6f74206120766160008201527f6c6964206f776e65720000000000000000000000000000000000000000000000602082015250565b7f45524337323155524953746f726167653a2055524920736574206f66206e6f6e60008201527f6578697374656e7420746f6b656e000000000000000000000000000000000000602082015250565b7f4552433732313a20617070726f76652063616c6c6572206973206e6f7420746f60008201527f6b656e206f776e6572206e6f7220617070726f76656420666f7220616c6c0000602082015250565b7f4552433732313a206d696e7420746f20746865207a65726f2061646472657373600082015250565b7f4552433732313a20696e76616c696420746f6b656e2049440000000000000000600082015250565b7f4552433732313a20617070726f76616c20746f2063757272656e74206f776e6560008201527f7200000000000000000000000000000000000000000000000000000000000000602082015250565b7f496e76616c696420746f6b656e20496400000000000000000000000000000000600082015250565b7f43616e6e6f7420636c61696d206d6f7265207468616e20313030250000000000600082015250565b7f4552433732313a2063616c6c6572206973206e6f7420746f6b656e206f776e6560008201527f72206e6f7220617070726f766564000000000000000000000000000000000000602082015250565b61302981612a00565b811461303457600080fd5b50565b61304081612a12565b811461304b57600080fd5b50565b61305781612a1e565b811461306257600080fd5b50565b61306e81612a6a565b811461307957600080fd5b5056fea2646970667358221220dcaa401b5ed5b25a411bfab8fdec4c9b622e1cea0c4c9f25946f1d9b27aab6e264736f6c63430008040033",
  "linkReferences": {},
  "deployedLinkReferences": {}
}