{
  "_format": "hh-sol-artifact-1",
  "contractName": "NFTContract",
  "sourceName": "contracts/NFTContract.sol",
  "abi": [
    {
      "inputs": [],
      "stateMutability": "nonpayable",
      "type": "constructor"
    },
    {
      "anonymous": false,
      "inputs": [
        {
          "indexed": true,
          "internalType": "address",
          "name": "owner",
          "type": "address"
        },
        {
          "indexed": true,
          "internalType": "address",
          "name": "approved",
          "type": "address"
        },
        {
          "indexed": true,
          "internalType": "uint256",
          "name": "tokenId",
          "type": "uint256"
        }
      ],
      "name": "Approval",
      "type": "event"
    },
    {
      "anonymous": false,
      "inputs": [
        {
          "indexed": true,
          "internalType": "address",
          "name": "owner",
          "type": "address"
        },
        {
          "indexed": true,
          "internalType": "address",
          "name": "operator",
          "type": "address"
        },
        {
          "indexed": false,
          "internalType": "bool",
          "name": "approved",
          "type": "bool"
        }
      ],
      "name": "ApprovalForAll",
      "type": "event"
    },
    {
      "anonymous": false,
      "inputs": [
        {
          "indexed": true,
          "internalType": "uint256",
          "name": "tokenId",
          "type": "uint256"
        },
        {
          "indexed": true,
          "internalType": "address",
          "name": "owner",
          "type": "address"
        }
      ],
      "name": "MintingEvent",
      "type": "event"
    },
    {
      "anonymous": false,
      "inputs": [
        {
          "indexed": true,
          "internalType": "address",
          "name": "from",
          "type": "address"
        },
        {
          "indexed": true,
          "internalType": "address",
          "name": "to",
          "type": "address"
        },
        {
          "indexed": true,
          "internalType": "uint256",
          "name": "tokenId",
          "type": "uint256"
        }
      ],
      "name": "Transfer",
      "type": "event"
    },
    {
      "inputs": [],
      "name": "DEFAULT_FRACTIONS_COUNT",
      "outputs": [
        {
          "internalType": "uint256",
          "name": "",
          "type": "uint256"
        }
      ],
      "stateMutability": "view",
      "type": "function"
    },
    {
      "inputs": [],
      "name": "MINIMUM_INITIAL_LIQUIDITY",
      "outputs": [
        {
          "internalType": "uint256",
          "name": "",
          "type": "uint256"
        }
      ],
      "stateMutability": "view",
      "type": "function"
    },
    {
      "inputs": [
        {
          "internalType": "address",
          "name": "to",
          "type": "address"
        },
        {
          "internalType": "uint256",
          "name": "tokenId",
          "type": "uint256"
        }
      ],
      "name": "approve",
      "outputs": [],
      "stateMutability": "nonpayable",
      "type": "function"
    },
    {
      "inputs": [
        {
          "internalType": "address",
          "name": "owner",
          "type": "address"
        }
      ],
      "name": "balanceOf",
      "outputs": [
        {
          "internalType": "uint256",
          "name": "",
          "type": "uint256"
        }
      ],
      "stateMutability": "view",
      "type": "function"
    },
    {
      "inputs": [
        {
          "internalType": "uint256",
          "name": "tokenId",
          "type": "uint256"
        },
        {
          "internalType": "uint256",
          "name": "authorCutPercent",
          "type": "uint256"
        }
      ],
      "name": "createPool",
      "outputs": [],
      "stateMutability": "payable",
      "type": "function"
    },
    {
      "inputs": [
        {
          "internalType": "address",
          "name": "",
          "type": "address"
        },
        {
          "internalType": "uint256",
          "name": "",
          "type": "uint256"
        }
      ],
      "name": "fractionBalances",
      "outputs": [
        {
          "internalType": "uint256",
          "name": "",
          "type": "uint256"
        }
      ],
      "stateMutability": "view",
      "type": "function"
    },
    {
      "inputs": [
        {
          "internalType": "uint256",
          "name": "tokenId",
          "type": "uint256"
        }
      ],
      "name": "getApproved",
      "outputs": [
        {
          "internalType": "address",
          "name": "",
          "type": "address"
        }
      ],
      "stateMutability": "view",
      "type": "function"
    },
    {
      "inputs": [
        {
          "internalType": "address",
          "name": "owner",
          "type": "address"
        },
        {
          "internalType": "address",
          "name": "operator",
          "type": "address"
        }
      ],
      "name": "isApprovedForAll",
      "outputs": [
        {
          "internalType": "bool",
          "name": "",
          "type": "bool"
        }
      ],
      "stateMutability": "view",
      "type": "function"
    },
    {
      "inputs": [],
      "name": "lastTokenId",
      "outputs": [
        {
          "internalType": "uint256",
          "name": "",
          "type": "uint256"
        }
      ],
      "stateMutability": "view",
      "type": "function"
    },
    {
      "inputs": [
        {
          "internalType": "string",
          "name": "_tokenURI",
          "type": "string"
        }
      ],
      "name": "mint",
      "outputs": [
        {
          "internalType": "uint256",
          "name": "",
          "type": "uint256"
        }
      ],
      "stateMutability": "nonpayable",
      "type": "function"
    },
    {
      "inputs": [],
      "name": "name",
      "outputs": [
        {
          "internalType": "string",
          "name": "",
          "type": "string"
        }
      ],
      "stateMutability": "view",
      "type": "function"
    },
    {
      "inputs": [
        {
          "internalType": "uint256",
          "name": "tokenId",
          "type": "uint256"
        }
      ],
      "name": "ownerOf",
      "outputs": [
        {
          "internalType": "address",
          "name": "",
          "type": "address"
        }
      ],
      "stateMutability": "view",
      "type": "function"
    },
    {
      "inputs": [
        {
          "internalType": "uint256",
          "name": "",
          "type": "uint256"
        }
      ],
      "name": "pool_data",
      "outputs": [
        {
          "internalType": "uint256",
          "name": "tokenId",
          "type": "uint256"
        },
        {
          "internalType": "uint256",
          "name": "poolId",
          "type": "uint256"
        },
        {
          "internalType": "bool",
          "name": "exists",
          "type": "bool"
        },
        {
          "internalType": "uint256",
          "name": "nft_fractions",
          "type": "uint256"
        },
        {
          "internalType": "uint256",
          "name": "token_liq",
          "type": "uint256"
        }
      ],
      "stateMutability": "view",
      "type": "function"
    },
    {
      "inputs": [
        {
          "internalType": "address",
          "name": "from",
          "type": "address"
        },
        {
          "internalType": "address",
          "name": "to",
          "type": "address"
        },
        {
          "internalType": "uint256",
          "name": "tokenId",
          "type": "uint256"
        }
      ],
      "name": "safeTransferFrom",
      "outputs": [],
      "stateMutability": "nonpayable",
      "type": "function"
    },
    {
      "inputs": [
        {
          "internalType": "address",
          "name": "from",
          "type": "address"
        },
        {
          "internalType": "address",
          "name": "to",
          "type": "address"
        },
        {
          "internalType": "uint256",
          "name": "tokenId",
          "type": "uint256"
        },
        {
          "internalType": "bytes",
          "name": "data",
          "type": "bytes"
        }
      ],
      "name": "safeTransferFrom",
      "outputs": [],
      "stateMutability": "nonpayable",
      "type": "function"
    },
    {
      "inputs": [
        {
          "internalType": "address",
          "name": "operator",
          "type": "address"
        },
        {
          "internalType": "bool",
          "name": "approved",
          "type": "bool"
        }
      ],
      "name": "setApprovalForAll",
      "outputs": [],
      "stateMutability": "nonpayable",
      "type": "function"
    },
    {
      "inputs": [
        {
          "internalType": "bytes4",
          "name": "interfaceId",
          "type": "bytes4"
        }
      ],
      "name": "supportsInterface",
      "outputs": [
        {
          "internalType": "bool",
          "name": "",
          "type": "bool"
        }
      ],
      "stateMutability": "view",
      "type": "function"
    },
    {
      "inputs": [
        {
          "internalType": "uint256",
          "name": "poolId",
          "type": "uint256"
        },
        {
          "internalType": "uint256",
          "name": "fractionCount",
          "type": "uint256"
        }
      ],
      "name": "swap",
      "outputs": [],
      "stateMutability": "payable",
      "type": "function"
    },
    {
      "inputs": [],
      "name": "symbol",
      "outputs": [
        {
          "internalType": "string",
          "name": "",
          "type": "string"
        }
      ],
      "stateMutability": "view",
      "type": "function"
    },
    {
      "inputs": [
        {
          "internalType": "uint256",
          "name": "",
          "type": "uint256"
        }
      ],
      "name": "tokenToPoolMap",
      "outputs": [
        {
          "internalType": "uint256",
          "name": "",
          "type": "uint256"
        }
      ],
      "stateMutability": "view",
      "type": "function"
    },
    {
      "inputs": [
        {
          "internalType": "uint256",
          "name": "tokenId",
          "type": "uint256"
        }
      ],
      "name": "tokenURI",
      "outputs": [
        {
          "internalType": "string",
          "name": "",
          "type": "string"
        }
      ],
      "stateMutability": "view",
      "type": "function"
    },
    {
      "inputs": [
        {
          "internalType": "address",
          "name": "from",
          "type": "address"
        },
        {
          "internalType": "address",
          "name": "to",
          "type": "address"
        },
        {
          "internalType": "uint256",
          "name": "tokenId",
          "type": "uint256"
        }
      ],
      "name": "transferFrom",
      "outputs": [],
      "stateMutability": "nonpayable",
      "type": "function"
    }
  ],
  "bytecode": "0x60806040523480156200001157600080fd5b506040518060400160405280600581526020017f4e667465650000000000000000000000000000000000000000000000000000008152506040518060400160405280600381526020017f4e54450000000000000000000000000000000000000000000000000000000000815250816000908051906020019062000096929190620000f9565b508060019080519060200190620000af929190620000f9565b50505033600a60006101000a81548173ffffffffffffffffffffffffffffffffffffffff021916908373ffffffffffffffffffffffffffffffffffffffff1602179055506200020e565b8280546200010790620001a9565b90600052602060002090601f0160209004810192826200012b576000855562000177565b82601f106200014657805160ff191683800117855562000177565b8280016001018555821562000177579182015b828111156200017657825182559160200191906001019062000159565b5b5090506200018691906200018a565b5090565b5b80821115620001a55760008160009055506001016200018b565b5090565b60006002820490506001821680620001c257607f821691505b60208210811415620001d957620001d8620001df565b5b50919050565b7f4e487b7100000000000000000000000000000000000000000000000000000000600052602260045260246000fd5b6135b5806200021e6000396000f3fe6080604052600436106101355760003560e01c806374a110c2116100ab578063c87b56dd1161006f578063c87b56dd14610441578063d85d3d271461047e578063d96073cf146104bb578063e985e9c5146104d7578063f3a1d95f14610514578063f84ddf0b1461055157610135565b806374a110c21461037d57806395d89b4114610399578063a22cb465146103c4578063b88d4fde146103ed578063c67b8cc31461041657610135565b806323b872dd116100fd57806323b872dd146102335780633729ae211461025c57806342842e0e14610299578063612883fb146102c25780636352211e1461030357806370a082311461034057610135565b806301e7cb021461013a57806301ffc9a71461016557806306fdde03146101a2578063081812fc146101cd578063095ea7b31461020a575b600080fd5b34801561014657600080fd5b5061014f61057c565b60405161015c9190612c6f565b60405180910390f35b34801561017157600080fd5b5061018c60048036038101906101879190612525565b610582565b60405161019991906129f2565b60405180910390f35b3480156101ae57600080fd5b506101b7610664565b6040516101c49190612a0d565b60405180910390f35b3480156101d957600080fd5b506101f460048036038101906101ef91906125bc565b6106f6565b604051610201919061298b565b60405180910390f35b34801561021657600080fd5b50610231600480360381019061022c91906124e9565b61073c565b005b34801561023f57600080fd5b5061025a600480360381019061025591906123e3565b610854565b005b34801561026857600080fd5b50610283600480360381019061027e91906125bc565b6108b4565b6040516102909190612c6f565b60405180910390f35b3480156102a557600080fd5b506102c060048036038101906102bb91906123e3565b6108cc565b005b3480156102ce57600080fd5b506102e960048036038101906102e491906125bc565b6108ec565b6040516102fa959493929190612c8a565b60405180910390f35b34801561030f57600080fd5b5061032a600480360381019061032591906125bc565b61092f565b604051610337919061298b565b60405180910390f35b34801561034c57600080fd5b506103676004803603810190610362919061237e565b6109e1565b6040516103749190612c6f565b60405180910390f35b610397600480360381019061039291906125e5565b610a99565b005b3480156103a557600080fd5b506103ae610d2d565b6040516103bb9190612a0d565b60405180910390f35b3480156103d057600080fd5b506103eb60048036038101906103e691906124ad565b610dbf565b005b3480156103f957600080fd5b50610414600480360381019061040f9190612432565b610dd5565b005b34801561042257600080fd5b5061042b610e37565b6040516104389190612c6f565b60405180910390f35b34801561044d57600080fd5b50610468600480360381019061046391906125bc565b610e3c565b6040516104759190612a0d565b60405180910390f35b34801561048a57600080fd5b506104a560048036038101906104a09190612577565b610f4f565b6040516104b29190612c6f565b60405180910390f35b6104d560048036038101906104d091906125e5565b61100f565b005b3480156104e357600080fd5b506104fe60048036038101906104f991906123a7565b6113ed565b60405161050b91906129f2565b60405180910390f35b34801561052057600080fd5b5061053b600480360381019061053691906124e9565b611481565b6040516105489190612c6f565b60405180910390f35b34801561055d57600080fd5b506105666114a6565b6040516105739190612c6f565b60405180910390f35b61271081565b60007f80ac58cd000000000000000000000000000000000000000000000000000000007bffffffffffffffffffffffffffffffffffffffffffffffffffffffff1916827bffffffffffffffffffffffffffffffffffffffffffffffffffffffff1916148061064d57507f5b5e139f000000000000000000000000000000000000000000000000000000007bffffffffffffffffffffffffffffffffffffffffffffffffffffffff1916827bffffffffffffffffffffffffffffffffffffffffffffffffffffffff1916145b8061065d575061065c826114b7565b5b9050919050565b60606000805461067390612f41565b80601f016020809104026020016040519081016040528092919081815260200182805461069f90612f41565b80156106ec5780601f106106c1576101008083540402835291602001916106ec565b820191906000526020600020905b8154815290600101906020018083116106cf57829003601f168201915b5050505050905090565b600061070182611521565b6004600083815260200190815260200160002060009054906101000a900473ffffffffffffffffffffffffffffffffffffffff169050919050565b60006107478261092f565b90508073ffffffffffffffffffffffffffffffffffffffff168373ffffffffffffffffffffffffffffffffffffffff1614156107b8576040517f08c379a00000000000000000000000000000000000000000000000000000000081526004016107af90612bef565b60405180910390fd5b8073ffffffffffffffffffffffffffffffffffffffff166107d761156c565b73ffffffffffffffffffffffffffffffffffffffff16148061080657506108058161080061156c565b6113ed565b5b610845576040517f08c379a000000000000000000000000000000000000000000000000000000000815260040161083c90612b8f565b60405180910390fd5b61084f8383611574565b505050565b61086561085f61156c565b8261162d565b6108a4576040517f08c379a000000000000000000000000000000000000000000000000000000000815260040161089b90612c4f565b60405180910390fd5b6108af8383836116c2565b505050565b600c6020528060005260406000206000915090505481565b6108e783838360405180602001604052806000815250610dd5565b505050565b600b6020528060005260406000206000915090508060000154908060010154908060020160009054906101000a900460ff16908060030154908060040154905085565b6000806002600084815260200190815260200160002060009054906101000a900473ffffffffffffffffffffffffffffffffffffffff169050600073ffffffffffffffffffffffffffffffffffffffff168173ffffffffffffffffffffffffffffffffffffffff1614156109d8576040517f08c379a00000000000000000000000000000000000000000000000000000000081526004016109cf90612bcf565b60405180910390fd5b80915050919050565b60008073ffffffffffffffffffffffffffffffffffffffff168273ffffffffffffffffffffffffffffffffffffffff161415610a52576040517f08c379a0000000000000000000000000000000000000000000000000000000008152600401610a4990612b2f565b60405180910390fd5b600360008373ffffffffffffffffffffffffffffffffffffffff1673ffffffffffffffffffffffffffffffffffffffff168152602001908152602001600020549050919050565b81610aa46007611929565b811115610ae6576040517f08c379a0000000000000000000000000000000000000000000000000000000008152600401610add90612c0f565b60405180910390fd5b6064821115610b2a576040517f08c379a0000000000000000000000000000000000000000000000000000000008152600401610b2190612c2f565b60405180910390fd5b60143411610b6d576040517f08c379a0000000000000000000000000000000000000000000000000000000008152600401610b6490612a2f565b60405180910390fd5b610b768361092f565b73ffffffffffffffffffffffffffffffffffffffff163373ffffffffffffffffffffffffffffffffffffffff1614610be3576040517f08c379a0000000000000000000000000000000000000000000000000000000008152600401610bda90612aaf565b60405180910390fd5b610bee333085610854565b610bf86008611937565b6000610c046008611929565b90506000606484612710610c189190612dfd565b610c229190612dcc565b90506040518060a0016040528086815260200183815260200160011515815260200182612710610c529190612e57565b815260200134815250600b6000848152602001908152602001600020600082015181600001556020820151816001015560408201518160020160006101000a81548160ff021916908315150217905550606082015181600301556080820151816004015590505081600c60008781526020019081526020016000208190555080600d60003373ffffffffffffffffffffffffffffffffffffffff1673ffffffffffffffffffffffffffffffffffffffff1681526020019081526020016000206000878152602001908152602001600020819055505050505050565b606060018054610d3c90612f41565b80601f0160208091040260200160405190810160405280929190818152602001828054610d6890612f41565b8015610db55780601f10610d8a57610100808354040283529160200191610db5565b820191906000526020600020905b815481529060010190602001808311610d9857829003601f168201915b5050505050905090565b610dd1610dca61156c565b838361194d565b5050565b610de6610de061156c565b8361162d565b610e25576040517f08c379a0000000000000000000000000000000000000000000000000000000008152600401610e1c90612c4f565b60405180910390fd5b610e3184848484611aba565b50505050565b601481565b6060610e4782611521565b6000600660008481526020019081526020016000208054610e6790612f41565b80601f0160208091040260200160405190810160405280929190818152602001828054610e9390612f41565b8015610ee05780601f10610eb557610100808354040283529160200191610ee0565b820191906000526020600020905b815481529060010190602001808311610ec357829003601f168201915b505050505090506000610ef1611b16565b9050600081511415610f07578192505050610f4a565b600082511115610f3c578082604051602001610f24929190612967565b60405160208183030381529060405292505050610f4a565b610f4584611b2d565b925050505b919050565b6000610f5b6007611937565b6000610f676007611929565b9050610f733382611b95565b610fc18185858080601f016020809104026020016040519081016040528093929190818152602001838380828437600081840152601f19601f82011690508083019250505050505050611d6f565b3373ffffffffffffffffffffffffffffffffffffffff16817f394567d00aaa992bb8ad351eeef7d57db51a0e54af3d224f7831331df65b4cf560405160405180910390a38091505092915050565b60003411801561101f5750600081115b1561105f576040517f08c379a000000000000000000000000000000000000000000000000000000000815260040161105690612b6f565b60405180910390fd5b6000600b600084815260200190815260200160002060040154600b6000858152602001908152602001600020600301546110999190612dfd565b90506000600b60008581526020019081526020016000206040518060a001604052908160008201548152602001600182015481526020016002820160009054906101000a900460ff16151515158152602001600382015481526020016004820154815250509050600034111561120257600034826080015161111b9190612d76565b836111269190612dcc565b82606001516111359190612e57565b905080600b6000878152602001908152602001600020600301600082825461115d9190612e57565b9250508190555034600b6000878152602001908152602001600020600401600082825461118a9190612d76565b9250508190555080600d60003373ffffffffffffffffffffffffffffffffffffffff1673ffffffffffffffffffffffffffffffffffffffff16815260200190815260200160002060008460000151815260200190815260200160002060008282546111f59190612d76565b92505081905550506113e7565b82600d60003373ffffffffffffffffffffffffffffffffffffffff1673ffffffffffffffffffffffffffffffffffffffff1681526020019081526020016000206000600b60008881526020019081526020016000206000015481526020019081526020016000205410156112ab576040517f08c379a00000000000000000000000000000000000000000000000000000000081526004016112a290612b0f565b60405180910390fd5b60008382606001516112bd9190612d76565b836112c89190612dcc565b82608001516112d79190612e57565b905080600b600087815260200190815260200160002060040160008282546112ff9190612e57565b925050819055503373ffffffffffffffffffffffffffffffffffffffff166108fc829081150290604051600060405180830381858888f1935050505015801561134c573d6000803e3d6000fd5b5083600b600087815260200190815260200160002060030160008282546113739190612d76565b9250508190555083600d60003373ffffffffffffffffffffffffffffffffffffffff1673ffffffffffffffffffffffffffffffffffffffff16815260200190815260200160002060008460000151815260200190815260200160002060008282546113de9190612e57565b92505081905550505b50505050565b6000600560008473ffffffffffffffffffffffffffffffffffffffff1673ffffffffffffffffffffffffffffffffffffffff16815260200190815260200160002060008373ffffffffffffffffffffffffffffffffffffffff1673ffffffffffffffffffffffffffffffffffffffff16815260200190815260200160002060009054906101000a900460ff16905092915050565b600d602052816000526040600020602052806000526040600020600091509150505481565b60006114b26007611929565b905090565b60007f01ffc9a7000000000000000000000000000000000000000000000000000000007bffffffffffffffffffffffffffffffffffffffffffffffffffffffff1916827bffffffffffffffffffffffffffffffffffffffffffffffffffffffff1916149050919050565b61152a81611de3565b611569576040517f08c379a000000000000000000000000000000000000000000000000000000000815260040161156090612bcf565b60405180910390fd5b50565b600033905090565b816004600083815260200190815260200160002060006101000a81548173ffffffffffffffffffffffffffffffffffffffff021916908373ffffffffffffffffffffffffffffffffffffffff160217905550808273ffffffffffffffffffffffffffffffffffffffff166115e78361092f565b73ffffffffffffffffffffffffffffffffffffffff167f8c5be1e5ebec7d5bd14f71427d1e84f3dd0314c0f7b2291e5b200ac8c7c3b92560405160405180910390a45050565b6000806116398361092f565b90508073ffffffffffffffffffffffffffffffffffffffff168473ffffffffffffffffffffffffffffffffffffffff16148061167b575061167a81856113ed565b5b806116b957508373ffffffffffffffffffffffffffffffffffffffff166116a1846106f6565b73ffffffffffffffffffffffffffffffffffffffff16145b91505092915050565b8273ffffffffffffffffffffffffffffffffffffffff166116e28261092f565b73ffffffffffffffffffffffffffffffffffffffff1614611738576040517f08c379a000000000000000000000000000000000000000000000000000000000815260040161172f90612a6f565b60405180910390fd5b600073ffffffffffffffffffffffffffffffffffffffff168273ffffffffffffffffffffffffffffffffffffffff1614156117a8576040517f08c379a000000000000000000000000000000000000000000000000000000000815260040161179f90612acf565b60405180910390fd5b6117b3838383611e4f565b6117be600082611574565b6001600360008573ffffffffffffffffffffffffffffffffffffffff1673ffffffffffffffffffffffffffffffffffffffff168152602001908152602001600020600082825461180e9190612e57565b925050819055506001600360008473ffffffffffffffffffffffffffffffffffffffff1673ffffffffffffffffffffffffffffffffffffffff16815260200190815260200160002060008282546118659190612d76565b92505081905550816002600083815260200190815260200160002060006101000a81548173ffffffffffffffffffffffffffffffffffffffff021916908373ffffffffffffffffffffffffffffffffffffffff160217905550808273ffffffffffffffffffffffffffffffffffffffff168473ffffffffffffffffffffffffffffffffffffffff167fddf252ad1be2c89b69c2b068fc378daa952ba7f163c4a11628f55a4df523b3ef60405160405180910390a4611924838383611e54565b505050565b600081600001549050919050565b6001816000016000828254019250508190555050565b8173ffffffffffffffffffffffffffffffffffffffff168373ffffffffffffffffffffffffffffffffffffffff1614156119bc576040517f08c379a00000000000000000000000000000000000000000000000000000000081526004016119b390612aef565b60405180910390fd5b80600560008573ffffffffffffffffffffffffffffffffffffffff1673ffffffffffffffffffffffffffffffffffffffff16815260200190815260200160002060008473ffffffffffffffffffffffffffffffffffffffff1673ffffffffffffffffffffffffffffffffffffffff16815260200190815260200160002060006101000a81548160ff0219169083151502179055508173ffffffffffffffffffffffffffffffffffffffff168373ffffffffffffffffffffffffffffffffffffffff167f17307eab39ab6107e8899845ad3d59bd9653f200f220920489ca2b5937696c3183604051611aad91906129f2565b60405180910390a3505050565b611ac58484846116c2565b611ad184848484611e59565b611b10576040517f08c379a0000000000000000000000000000000000000000000000000000000008152600401611b0790612a4f565b60405180910390fd5b50505050565b606060405180602001604052806000815250905090565b6060611b3882611521565b6000611b42611b16565b90506000815111611b625760405180602001604052806000815250611b8d565b80611b6c84611ff0565b604051602001611b7d929190612967565b6040516020818303038152906040525b915050919050565b600073ffffffffffffffffffffffffffffffffffffffff168273ffffffffffffffffffffffffffffffffffffffff161415611c05576040517f08c379a0000000000000000000000000000000000000000000000000000000008152600401611bfc90612baf565b60405180910390fd5b611c0e81611de3565b15611c4e576040517f08c379a0000000000000000000000000000000000000000000000000000000008152600401611c4590612a8f565b60405180910390fd5b611c5a60008383611e4f565b6001600360008473ffffffffffffffffffffffffffffffffffffffff1673ffffffffffffffffffffffffffffffffffffffff1681526020019081526020016000206000828254611caa9190612d76565b92505081905550816002600083815260200190815260200160002060006101000a81548173ffffffffffffffffffffffffffffffffffffffff021916908373ffffffffffffffffffffffffffffffffffffffff160217905550808273ffffffffffffffffffffffffffffffffffffffff16600073ffffffffffffffffffffffffffffffffffffffff167fddf252ad1be2c89b69c2b068fc378daa952ba7f163c4a11628f55a4df523b3ef60405160405180910390a4611d6b60008383611e54565b5050565b611d7882611de3565b611db7576040517f08c379a0000000000000000000000000000000000000000000000000000000008152600401611dae90612b4f565b60405180910390fd5b80600660008481526020019081526020016000209080519060200190611dde9291906121c0565b505050565b60008073ffffffffffffffffffffffffffffffffffffffff166002600084815260200190815260200160002060009054906101000a900473ffffffffffffffffffffffffffffffffffffffff1673ffffffffffffffffffffffffffffffffffffffff1614159050919050565b505050565b505050565b6000611e7a8473ffffffffffffffffffffffffffffffffffffffff1661219d565b15611fe3578373ffffffffffffffffffffffffffffffffffffffff1663150b7a02611ea361156c565b8786866040518563ffffffff1660e01b8152600401611ec594939291906129a6565b602060405180830381600087803b158015611edf57600080fd5b505af1925050508015611f1057506040513d601f19601f82011682018060405250810190611f0d919061254e565b60015b611f93573d8060008114611f40576040519150601f19603f3d011682016040523d82523d6000602084013e611f45565b606091505b50600081511415611f8b576040517f08c379a0000000000000000000000000000000000000000000000000000000008152600401611f8290612a4f565b60405180910390fd5b805181602001fd5b63150b7a0260e01b7bffffffffffffffffffffffffffffffffffffffffffffffffffffffff1916817bffffffffffffffffffffffffffffffffffffffffffffffffffffffff191614915050611fe8565b600190505b949350505050565b60606000821415612038576040518060400160405280600181526020017f30000000000000000000000000000000000000000000000000000000000000008152509050612198565b600082905060005b6000821461206a57808061205390612fa4565b915050600a826120639190612dcc565b9150612040565b60008167ffffffffffffffff8111156120ac577f4e487b7100000000000000000000000000000000000000000000000000000000600052604160045260246000fd5b6040519080825280601f01601f1916602001820160405280156120de5781602001600182028036833780820191505090505b5090505b60008514612191576001826120f79190612e57565b9150600a856121069190612fed565b60306121129190612d76565b60f81b81838151811061214e577f4e487b7100000000000000000000000000000000000000000000000000000000600052603260045260246000fd5b60200101907effffffffffffffffffffffffffffffffffffffffffffffffffffffffffffff1916908160001a905350600a8561218a9190612dcc565b94506120e2565b8093505050505b919050565b6000808273ffffffffffffffffffffffffffffffffffffffff163b119050919050565b8280546121cc90612f41565b90600052602060002090601f0160209004810192826121ee5760008555612235565b82601f1061220757805160ff1916838001178555612235565b82800160010185558215612235579182015b82811115612234578251825591602001919060010190612219565b5b5090506122429190612246565b5090565b5b8082111561225f576000816000905550600101612247565b5090565b600061227661227184612d02565b612cdd565b90508281526020810184848401111561228e57600080fd5b612299848285612eff565b509392505050565b6000813590506122b081613523565b92915050565b6000813590506122c58161353a565b92915050565b6000813590506122da81613551565b92915050565b6000815190506122ef81613551565b92915050565b600082601f83011261230657600080fd5b8135612316848260208601612263565b91505092915050565b60008083601f84011261233157600080fd5b8235905067ffffffffffffffff81111561234a57600080fd5b60208301915083600182028301111561236257600080fd5b9250929050565b60008135905061237881613568565b92915050565b60006020828403121561239057600080fd5b600061239e848285016122a1565b91505092915050565b600080604083850312156123ba57600080fd5b60006123c8858286016122a1565b92505060206123d9858286016122a1565b9150509250929050565b6000806000606084860312156123f857600080fd5b6000612406868287016122a1565b9350506020612417868287016122a1565b925050604061242886828701612369565b9150509250925092565b6000806000806080858703121561244857600080fd5b6000612456878288016122a1565b9450506020612467878288016122a1565b935050604061247887828801612369565b925050606085013567ffffffffffffffff81111561249557600080fd5b6124a1878288016122f5565b91505092959194509250565b600080604083850312156124c057600080fd5b60006124ce858286016122a1565b92505060206124df858286016122b6565b9150509250929050565b600080604083850312156124fc57600080fd5b600061250a858286016122a1565b925050602061251b85828601612369565b9150509250929050565b60006020828403121561253757600080fd5b6000612545848285016122cb565b91505092915050565b60006020828403121561256057600080fd5b600061256e848285016122e0565b91505092915050565b6000806020838503121561258a57600080fd5b600083013567ffffffffffffffff8111156125a457600080fd5b6125b08582860161231f565b92509250509250929050565b6000602082840312156125ce57600080fd5b60006125dc84828501612369565b91505092915050565b600080604083850312156125f857600080fd5b600061260685828601612369565b925050602061261785828601612369565b9150509250929050565b61262a81612e8b565b82525050565b61263981612e9d565b82525050565b600061264a82612d33565b6126548185612d49565b9350612664818560208601612f0e565b61266d816130da565b840191505092915050565b600061268382612d3e565b61268d8185612d5a565b935061269d818560208601612f0e565b6126a6816130da565b840191505092915050565b60006126bc82612d3e565b6126c68185612d6b565b93506126d6818560208601612f0e565b80840191505092915050565b60006126ef601d83612d5a565b91506126fa826130eb565b602082019050919050565b6000612712603283612d5a565b915061271d82613114565b604082019050919050565b6000612735602583612d5a565b915061274082613163565b604082019050919050565b6000612758601c83612d5a565b9150612763826131b2565b602082019050919050565b600061277b601c83612d5a565b9150612786826131db565b602082019050919050565b600061279e602483612d5a565b91506127a982613204565b604082019050919050565b60006127c1601983612d5a565b91506127cc82613253565b602082019050919050565b60006127e4601f83612d5a565b91506127ef8261327c565b602082019050919050565b6000612807602983612d5a565b9150612812826132a5565b604082019050919050565b600061282a602e83612d5a565b9150612835826132f4565b604082019050919050565b600061284d602683612d5a565b915061285882613343565b604082019050919050565b6000612870603e83612d5a565b915061287b82613392565b604082019050919050565b6000612893602083612d5a565b915061289e826133e1565b602082019050919050565b60006128b6601883612d5a565b91506128c18261340a565b602082019050919050565b60006128d9602183612d5a565b91506128e482613433565b604082019050919050565b60006128fc601083612d5a565b915061290782613482565b602082019050919050565b600061291f601b83612d5a565b915061292a826134ab565b602082019050919050565b6000612942602e83612d5a565b915061294d826134d4565b604082019050919050565b61296181612ef5565b82525050565b600061297382856126b1565b915061297f82846126b1565b91508190509392505050565b60006020820190506129a06000830184612621565b92915050565b60006080820190506129bb6000830187612621565b6129c86020830186612621565b6129d56040830185612958565b81810360608301526129e7818461263f565b905095945050505050565b6000602082019050612a076000830184612630565b92915050565b60006020820190508181036000830152612a278184612678565b905092915050565b60006020820190508181036000830152612a48816126e2565b9050919050565b60006020820190508181036000830152612a6881612705565b9050919050565b60006020820190508181036000830152612a8881612728565b9050919050565b60006020820190508181036000830152612aa88161274b565b9050919050565b60006020820190508181036000830152612ac88161276e565b9050919050565b60006020820190508181036000830152612ae881612791565b9050919050565b60006020820190508181036000830152612b08816127b4565b9050919050565b60006020820190508181036000830152612b28816127d7565b9050919050565b60006020820190508181036000830152612b48816127fa565b9050919050565b60006020820190508181036000830152612b688161281d565b9050919050565b60006020820190508181036000830152612b8881612840565b9050919050565b60006020820190508181036000830152612ba881612863565b9050919050565b60006020820190508181036000830152612bc881612886565b9050919050565b60006020820190508181036000830152612be8816128a9565b9050919050565b60006020820190508181036000830152612c08816128cc565b9050919050565b60006020820190508181036000830152612c28816128ef565b9050919050565b60006020820190508181036000830152612c4881612912565b9050919050565b60006020820190508181036000830152612c6881612935565b9050919050565b6000602082019050612c846000830184612958565b92915050565b600060a082019050612c9f6000830188612958565b612cac6020830187612958565b612cb96040830186612630565b612cc66060830185612958565b612cd36080830184612958565b9695505050505050565b6000612ce7612cf8565b9050612cf38282612f73565b919050565b6000604051905090565b600067ffffffffffffffff821115612d1d57612d1c6130ab565b5b612d26826130da565b9050602081019050919050565b600081519050919050565b600081519050919050565b600082825260208201905092915050565b600082825260208201905092915050565b600081905092915050565b6000612d8182612ef5565b9150612d8c83612ef5565b9250827fffffffffffffffffffffffffffffffffffffffffffffffffffffffffffffffff03821115612dc157612dc061301e565b5b828201905092915050565b6000612dd782612ef5565b9150612de283612ef5565b925082612df257612df161304d565b5b828204905092915050565b6000612e0882612ef5565b9150612e1383612ef5565b9250817fffffffffffffffffffffffffffffffffffffffffffffffffffffffffffffffff0483118215151615612e4c57612e4b61301e565b5b828202905092915050565b6000612e6282612ef5565b9150612e6d83612ef5565b925082821015612e8057612e7f61301e565b5b828203905092915050565b6000612e9682612ed5565b9050919050565b60008115159050919050565b60007fffffffff0000000000000000000000000000000000000000000000000000000082169050919050565b600073ffffffffffffffffffffffffffffffffffffffff82169050919050565b6000819050919050565b82818337600083830152505050565b60005b83811015612f2c578082015181840152602081019050612f11565b83811115612f3b576000848401525b50505050565b60006002820490506001821680612f5957607f821691505b60208210811415612f6d57612f6c61307c565b5b50919050565b612f7c826130da565b810181811067ffffffffffffffff82111715612f9b57612f9a6130ab565b5b80604052505050565b6000612faf82612ef5565b91507fffffffffffffffffffffffffffffffffffffffffffffffffffffffffffffffff821415612fe257612fe161301e565b5b600182019050919050565b6000612ff882612ef5565b915061300383612ef5565b9250826130135761301261304d565b5b828206905092915050565b7f4e487b7100000000000000000000000000000000000000000000000000000000600052601160045260246000fd5b7f4e487b7100000000000000000000000000000000000000000000000000000000600052601260045260246000fd5b7f4e487b7100000000000000000000000000000000000000000000000000000000600052602260045260246000fd5b7f4e487b7100000000000000000000000000000000000000000000000000000000600052604160045260246000fd5b6000601f19601f8301169050919050565b7f4e6f20696e697469616c206c69717569646974792070726f7669646564000000600082015250565b7f4552433732313a207472616e7366657220746f206e6f6e20455243373231526560008201527f63656976657220696d706c656d656e7465720000000000000000000000000000602082015250565b7f4552433732313a207472616e736665722066726f6d20696e636f72726563742060008201527f6f776e6572000000000000000000000000000000000000000000000000000000602082015250565b7f4552433732313a20746f6b656e20616c7265616479206d696e74656400000000600082015250565b7f4f6e6c79206f776e65722063616e206c69737420616e20617373657400000000600082015250565b7f4552433732313a207472616e7366657220746f20746865207a65726f2061646460008201527f7265737300000000000000000000000000000000000000000000000000000000602082015250565b7f4552433732313a20617070726f766520746f2063616c6c657200000000000000600082015250565b7f4e6f7420656e6f756768206672616374696f6e7320696e2062616c616e636500600082015250565b7f4552433732313a2061646472657373207a65726f206973206e6f74206120766160008201527f6c6964206f776e65720000000000000000000000000000000000000000000000602082015250565b7f45524337323155524953746f726167653a2055524920736574206f66206e6f6e60008201527f6578697374656e7420746f6b656e000000000000000000000000000000000000602082015250565b7f496e76616c69642063616c6c2e2043616e6e6f7420646563696465207768696360008201527f6820736964650000000000000000000000000000000000000000000000000000602082015250565b7f4552433732313a20617070726f76652063616c6c6572206973206e6f7420746f60008201527f6b656e206f776e6572206e6f7220617070726f76656420666f7220616c6c0000602082015250565b7f4552433732313a206d696e7420746f20746865207a65726f2061646472657373600082015250565b7f4552433732313a20696e76616c696420746f6b656e2049440000000000000000600082015250565b7f4552433732313a20617070726f76616c20746f2063757272656e74206f776e6560008201527f7200000000000000000000000000000000000000000000000000000000000000602082015250565b7f496e76616c696420746f6b656e20496400000000000000000000000000000000600082015250565b7f43616e6e6f7420636c61696d206d6f7265207468616e20313030250000000000600082015250565b7f4552433732313a2063616c6c6572206973206e6f7420746f6b656e206f776e6560008201527f72206e6f7220617070726f766564000000000000000000000000000000000000602082015250565b61352c81612e8b565b811461353757600080fd5b50565b61354381612e9d565b811461354e57600080fd5b50565b61355a81612ea9565b811461356557600080fd5b50565b61357181612ef5565b811461357c57600080fd5b5056fea2646970667358221220c58e1dcabb182d5e25abafee4434e600e9c129b24c649155ceae59e69392951964736f6c63430008040033",
  "linkReferences": {},
  "deployedLinkReferences": {}
}