{
  "_format": "hh-sol-artifact-1",
  "contractName": "NFTContract",
  "sourceName": "contracts/NFTContract.sol",
  "abi": [
    {
      "inputs": [],
      "stateMutability": "nonpayable",
      "type": "constructor"
    },
    {
      "anonymous": false,
      "inputs": [
        {
          "indexed": true,
          "internalType": "address",
          "name": "owner",
          "type": "address"
        },
        {
          "indexed": true,
          "internalType": "address",
          "name": "approved",
          "type": "address"
        },
        {
          "indexed": true,
          "internalType": "uint256",
          "name": "tokenId",
          "type": "uint256"
        }
      ],
      "name": "Approval",
      "type": "event"
    },
    {
      "anonymous": false,
      "inputs": [
        {
          "indexed": true,
          "internalType": "address",
          "name": "owner",
          "type": "address"
        },
        {
          "indexed": true,
          "internalType": "address",
          "name": "operator",
          "type": "address"
        },
        {
          "indexed": false,
          "internalType": "bool",
          "name": "approved",
          "type": "bool"
        }
      ],
      "name": "ApprovalForAll",
      "type": "event"
    },
    {
      "anonymous": false,
      "inputs": [
        {
          "indexed": true,
          "internalType": "uint256",
          "name": "nftId",
          "type": "uint256"
        },
        {
          "indexed": true,
          "internalType": "uint256",
          "name": "roundNumber",
          "type": "uint256"
        }
      ],
      "name": "ListingEvent",
      "type": "event"
    },
    {
      "anonymous": false,
      "inputs": [
        {
          "indexed": true,
          "internalType": "uint256",
          "name": "tokenId",
          "type": "uint256"
        },
        {
          "indexed": true,
          "internalType": "address",
          "name": "owner",
          "type": "address"
        }
      ],
      "name": "MintingEvent",
      "type": "event"
    },
    {
      "anonymous": false,
      "inputs": [
        {
          "indexed": true,
          "internalType": "address",
          "name": "from",
          "type": "address"
        },
        {
          "indexed": true,
          "internalType": "address",
          "name": "to",
          "type": "address"
        },
        {
          "indexed": true,
          "internalType": "uint256",
          "name": "tokenId",
          "type": "uint256"
        }
      ],
      "name": "Transfer",
      "type": "event"
    },
    {
      "anonymous": false,
      "inputs": [
        {
          "indexed": true,
          "internalType": "uint256",
          "name": "nftId",
          "type": "uint256"
        },
        {
          "indexed": true,
          "internalType": "address",
          "name": "voter",
          "type": "address"
        },
        {
          "indexed": false,
          "internalType": "uint256",
          "name": "vote",
          "type": "uint256"
        },
        {
          "indexed": false,
          "internalType": "uint256",
          "name": "tokenCount",
          "type": "uint256"
        }
      ],
      "name": "VotedForAnNFTEvent",
      "type": "event"
    },
    {
      "inputs": [],
      "name": "DEFAULT_FRACTIONS_COUNT",
      "outputs": [
        {
          "internalType": "uint256",
          "name": "",
          "type": "uint256"
        }
      ],
      "stateMutability": "view",
      "type": "function"
    },
    {
      "inputs": [],
      "name": "MINIMUM_INITIAL_LIQUIDITY",
      "outputs": [
        {
          "internalType": "uint256",
          "name": "",
          "type": "uint256"
        }
      ],
      "stateMutability": "view",
      "type": "function"
    },
    {
      "inputs": [],
      "name": "SECONDS_PER_BLOCK",
      "outputs": [
        {
          "internalType": "uint256",
          "name": "",
          "type": "uint256"
        }
      ],
      "stateMutability": "view",
      "type": "function"
    },
    {
      "inputs": [],
      "name": "SECONDS_PER_ROUND",
      "outputs": [
        {
          "internalType": "uint256",
          "name": "",
          "type": "uint256"
        }
      ],
      "stateMutability": "view",
      "type": "function"
    },
    {
      "inputs": [],
      "name": "WINNERS_PER_ROUND",
      "outputs": [
        {
          "internalType": "uint256",
          "name": "",
          "type": "uint256"
        }
      ],
      "stateMutability": "view",
      "type": "function"
    },
    {
      "inputs": [
        {
          "internalType": "uint256",
          "name": "farmId",
          "type": "uint256"
        }
      ],
      "name": "addProfitToFarm",
      "outputs": [],
      "stateMutability": "payable",
      "type": "function"
    },
    {
      "inputs": [
        {
          "internalType": "address",
          "name": "to",
          "type": "address"
        },
        {
          "internalType": "uint256",
          "name": "tokenId",
          "type": "uint256"
        }
      ],
      "name": "approve",
      "outputs": [],
      "stateMutability": "nonpayable",
      "type": "function"
    },
    {
      "inputs": [
        {
          "internalType": "address",
          "name": "owner",
          "type": "address"
        }
      ],
      "name": "balanceOf",
      "outputs": [
        {
          "internalType": "uint256",
          "name": "",
          "type": "uint256"
        }
      ],
      "stateMutability": "view",
      "type": "function"
    },
    {
      "inputs": [
        {
          "internalType": "uint256",
          "name": "farmId",
          "type": "uint256"
        }
      ],
      "name": "claimFarmRewards",
      "outputs": [],
      "stateMutability": "nonpayable",
      "type": "function"
    },
    {
      "inputs": [
        {
          "internalType": "uint256",
          "name": "tokenId",
          "type": "uint256"
        },
        {
          "internalType": "uint256",
          "name": "authorCutPercent",
          "type": "uint256"
        }
      ],
      "name": "createPool",
      "outputs": [],
      "stateMutability": "payable",
      "type": "function"
    },
    {
      "inputs": [
        {
          "internalType": "uint256",
          "name": "",
          "type": "uint256"
        },
        {
          "internalType": "address",
          "name": "",
          "type": "address"
        }
      ],
      "name": "farmBalances",
      "outputs": [
        {
          "internalType": "uint256",
          "name": "",
          "type": "uint256"
        }
      ],
      "stateMutability": "view",
      "type": "function"
    },
    {
      "inputs": [
        {
          "internalType": "uint256",
          "name": "",
          "type": "uint256"
        },
        {
          "internalType": "address",
          "name": "",
          "type": "address"
        }
      ],
      "name": "farmProfits",
      "outputs": [
        {
          "internalType": "uint256",
          "name": "",
          "type": "uint256"
        }
      ],
      "stateMutability": "view",
      "type": "function"
    },
    {
      "inputs": [
        {
          "internalType": "uint256",
          "name": "",
          "type": "uint256"
        }
      ],
      "name": "farm_data",
      "outputs": [
        {
          "internalType": "uint256",
          "name": "farmId",
          "type": "uint256"
        },
        {
          "internalType": "uint256",
          "name": "tokenId",
          "type": "uint256"
        },
        {
          "internalType": "bool",
          "name": "exists",
          "type": "bool"
        },
        {
          "internalType": "uint256",
          "name": "totalLiquidity",
          "type": "uint256"
        }
      ],
      "stateMutability": "view",
      "type": "function"
    },
    {
      "inputs": [
        {
          "internalType": "address",
          "name": "",
          "type": "address"
        },
        {
          "internalType": "uint256",
          "name": "",
          "type": "uint256"
        }
      ],
      "name": "fractionBalances",
      "outputs": [
        {
          "internalType": "uint256",
          "name": "",
          "type": "uint256"
        }
      ],
      "stateMutability": "view",
      "type": "function"
    },
    {
      "inputs": [
        {
          "internalType": "uint256",
          "name": "tokenId",
          "type": "uint256"
        }
      ],
      "name": "getApproved",
      "outputs": [
        {
          "internalType": "address",
          "name": "",
          "type": "address"
        }
      ],
      "stateMutability": "view",
      "type": "function"
    },
    {
      "inputs": [
        {
          "internalType": "address",
          "name": "owner",
          "type": "address"
        },
        {
          "internalType": "address",
          "name": "operator",
          "type": "address"
        }
      ],
      "name": "isApprovedForAll",
      "outputs": [
        {
          "internalType": "bool",
          "name": "",
          "type": "bool"
        }
      ],
      "stateMutability": "view",
      "type": "function"
    },
    {
      "inputs": [],
      "name": "lastTokenId",
      "outputs": [
        {
          "internalType": "uint256",
          "name": "",
          "type": "uint256"
        }
      ],
      "stateMutability": "view",
      "type": "function"
    },
    {
      "inputs": [
        {
          "internalType": "uint256",
          "name": "tokenId",
          "type": "uint256"
        }
      ],
      "name": "makeNewFarm",
      "outputs": [],
      "stateMutability": "nonpayable",
      "type": "function"
    },
    {
      "inputs": [
        {
          "internalType": "string",
          "name": "_tokenURI",
          "type": "string"
        }
      ],
      "name": "mint",
      "outputs": [
        {
          "internalType": "uint256",
          "name": "",
          "type": "uint256"
        }
      ],
      "stateMutability": "nonpayable",
      "type": "function"
    },
    {
      "inputs": [],
      "name": "name",
      "outputs": [
        {
          "internalType": "string",
          "name": "",
          "type": "string"
        }
      ],
      "stateMutability": "view",
      "type": "function"
    },
    {
      "inputs": [
        {
          "internalType": "uint256",
          "name": "tokenId",
          "type": "uint256"
        }
      ],
      "name": "ownerOf",
      "outputs": [
        {
          "internalType": "address",
          "name": "",
          "type": "address"
        }
      ],
      "stateMutability": "view",
      "type": "function"
    },
    {
      "inputs": [
        {
          "internalType": "uint256",
          "name": "",
          "type": "uint256"
        }
      ],
      "name": "pool_data",
      "outputs": [
        {
          "internalType": "uint256",
          "name": "tokenId",
          "type": "uint256"
        },
        {
          "internalType": "uint256",
          "name": "poolId",
          "type": "uint256"
        },
        {
          "internalType": "bool",
          "name": "exists",
          "type": "bool"
        },
        {
          "internalType": "uint256",
          "name": "nft_fractions",
          "type": "uint256"
        },
        {
          "internalType": "uint256",
          "name": "token_liq",
          "type": "uint256"
        }
      ],
      "stateMutability": "view",
      "type": "function"
    },
    {
      "inputs": [
        {
          "internalType": "address",
          "name": "from",
          "type": "address"
        },
        {
          "internalType": "address",
          "name": "to",
          "type": "address"
        },
        {
          "internalType": "uint256",
          "name": "tokenId",
          "type": "uint256"
        }
      ],
      "name": "safeTransferFrom",
      "outputs": [],
      "stateMutability": "nonpayable",
      "type": "function"
    },
    {
      "inputs": [
        {
          "internalType": "address",
          "name": "from",
          "type": "address"
        },
        {
          "internalType": "address",
          "name": "to",
          "type": "address"
        },
        {
          "internalType": "uint256",
          "name": "tokenId",
          "type": "uint256"
        },
        {
          "internalType": "bytes",
          "name": "data",
          "type": "bytes"
        }
      ],
      "name": "safeTransferFrom",
      "outputs": [],
      "stateMutability": "nonpayable",
      "type": "function"
    },
    {
      "inputs": [
        {
          "internalType": "address",
          "name": "operator",
          "type": "address"
        },
        {
          "internalType": "bool",
          "name": "approved",
          "type": "bool"
        }
      ],
      "name": "setApprovalForAll",
      "outputs": [],
      "stateMutability": "nonpayable",
      "type": "function"
    },
    {
      "inputs": [
        {
          "internalType": "uint256",
          "name": "farmId",
          "type": "uint256"
        },
        {
          "internalType": "uint256",
          "name": "fractionCount",
          "type": "uint256"
        }
      ],
      "name": "stakeToFarm",
      "outputs": [],
      "stateMutability": "nonpayable",
      "type": "function"
    },
    {
      "inputs": [
        {
          "internalType": "bytes4",
          "name": "interfaceId",
          "type": "bytes4"
        }
      ],
      "name": "supportsInterface",
      "outputs": [
        {
          "internalType": "bool",
          "name": "",
          "type": "bool"
        }
      ],
      "stateMutability": "view",
      "type": "function"
    },
    {
      "inputs": [
        {
          "internalType": "uint256",
          "name": "poolId",
          "type": "uint256"
        },
        {
          "internalType": "uint256",
          "name": "fractionCount",
          "type": "uint256"
        }
      ],
      "name": "swap",
      "outputs": [],
      "stateMutability": "payable",
      "type": "function"
    },
    {
      "inputs": [],
      "name": "symbol",
      "outputs": [
        {
          "internalType": "string",
          "name": "",
          "type": "string"
        }
      ],
      "stateMutability": "view",
      "type": "function"
    },
    {
      "inputs": [
        {
          "internalType": "uint256",
          "name": "",
          "type": "uint256"
        }
      ],
      "name": "tokenIdToFarmMap",
      "outputs": [
        {
          "internalType": "uint256",
          "name": "",
          "type": "uint256"
        }
      ],
      "stateMutability": "view",
      "type": "function"
    },
    {
      "inputs": [
        {
          "internalType": "uint256",
          "name": "",
          "type": "uint256"
        }
      ],
      "name": "tokenToPoolMap",
      "outputs": [
        {
          "internalType": "uint256",
          "name": "",
          "type": "uint256"
        }
      ],
      "stateMutability": "view",
      "type": "function"
    },
    {
      "inputs": [
        {
          "internalType": "uint256",
          "name": "tokenId",
          "type": "uint256"
        }
      ],
      "name": "tokenURI",
      "outputs": [
        {
          "internalType": "string",
          "name": "",
          "type": "string"
        }
      ],
      "stateMutability": "view",
      "type": "function"
    },
    {
      "inputs": [
        {
          "internalType": "address",
          "name": "from",
          "type": "address"
        },
        {
          "internalType": "address",
          "name": "to",
          "type": "address"
        },
        {
          "internalType": "uint256",
          "name": "tokenId",
          "type": "uint256"
        }
      ],
      "name": "transferFrom",
      "outputs": [],
      "stateMutability": "nonpayable",
      "type": "function"
    },
    {
      "inputs": [
        {
          "internalType": "uint256",
          "name": "farmId",
          "type": "uint256"
        },
        {
          "internalType": "uint256",
          "name": "fractionCount",
          "type": "uint256"
        }
      ],
      "name": "unstakeFromFarm",
      "outputs": [],
      "stateMutability": "nonpayable",
      "type": "function"
    }
  ],
  "bytecode": "0x60806040523480156200001157600080fd5b506040518060400160405280600581526020017f4e667465650000000000000000000000000000000000000000000000000000008152506040518060400160405280600381526020017f4e54450000000000000000000000000000000000000000000000000000000000815250816000908051906020019062000096929190620000f9565b508060019080519060200190620000af929190620000f9565b50505033600a60006101000a81548173ffffffffffffffffffffffffffffffffffffffff021916908373ffffffffffffffffffffffffffffffffffffffff1602179055506200020e565b8280546200010790620001a9565b90600052602060002090601f0160209004810192826200012b576000855562000177565b82601f106200014657805160ff191683800117855562000177565b8280016001018555821562000177579182015b828111156200017657825182559160200191906001019062000159565b5b5090506200018691906200018a565b5090565b5b80821115620001a55760008160009055506001016200018b565b5090565b60006002820490506001821680620001c257607f821691505b60208210811415620001d957620001d8620001df565b5b50919050565b7f4e487b7100000000000000000000000000000000000000000000000000000000600052602260045260246000fd5b614112806200021e6000396000f3fe6080604052600436106101f85760003560e01c80638a2bd5df1161010d578063c67b8cc3116100a0578063d96073cf1161006f578063d96073cf14610779578063e985e9c514610795578063f3a1d95f146107d2578063f43542141461080f578063f84ddf0b1461084c576101f8565b8063c67b8cc3146106ab578063c87b56dd146106d6578063d12980ea14610713578063d85d3d271461073c576101f8565b8063a7e82079116100dc578063a7e82079146105ee578063b416110e1461062e578063b88d4fde14610657578063c1d7425814610680576101f8565b80638a2bd5df1461054157806395d89b411461055d57806399e2206d14610588578063a22cb465146105c5576101f8565b806323b872dd1161019057806356c01f221161015f57806356c01f221461042d578063612883fb1461046a5780636352211e146104ab57806370a08231146104e857806374a110c214610525576101f8565b806323b872dd1461037557806335fe79be1461039e5780633729ae21146103c757806342842e0e14610404576101f8565b8063081812fc116101cc578063081812fc146102bb578063095ea7b3146102f85780630998bb40146103215780631cecfca11461034a576101f8565b806280c1ae146101fd57806301e7cb021461022857806301ffc9a71461025357806306fdde0314610290575b600080fd5b34801561020957600080fd5b50610212610877565b60405161021f919061370c565b60405180910390f35b34801561023457600080fd5b5061023d61087c565b60405161024a919061370c565b60405180910390f35b34801561025f57600080fd5b5061027a60048036038101906102759190612ebd565b610882565b604051610287919061342f565b60405180910390f35b34801561029c57600080fd5b506102a5610964565b6040516102b2919061344a565b60405180910390f35b3480156102c757600080fd5b506102e260048036038101906102dd9190612f54565b6109f6565b6040516102ef91906133c8565b60405180910390f35b34801561030457600080fd5b5061031f600480360381019061031a9190612e81565b610a3c565b005b34801561032d57600080fd5b5061034860048036038101906103439190612f54565b610b54565b005b34801561035657600080fd5b5061035f610ba5565b60405161036c919061370c565b60405180910390f35b34801561038157600080fd5b5061039c60048036038101906103979190612d7b565b610baa565b005b3480156103aa57600080fd5b506103c560048036038101906103c09190612fb9565b610c0a565b005b3480156103d357600080fd5b506103ee60048036038101906103e99190612f54565b610e06565b6040516103fb919061370c565b60405180910390f35b34801561041057600080fd5b5061042b60048036038101906104269190612d7b565b610e1e565b005b34801561043957600080fd5b50610454600480360381019061044f9190612f7d565b610e3e565b604051610461919061370c565b60405180910390f35b34801561047657600080fd5b50610491600480360381019061048c9190612f54565b610e63565b6040516104a295949392919061376c565b60405180910390f35b3480156104b757600080fd5b506104d260048036038101906104cd9190612f54565b610ea6565b6040516104df91906133c8565b60405180910390f35b3480156104f457600080fd5b5061050f600480360381019061050a9190612d16565b610f58565b60405161051c919061370c565b60405180910390f35b61053f600480360381019061053a9190612fb9565b611010565b005b61055b60048036038101906105569190612f54565b6112a4565b005b34801561056957600080fd5b506105726112f5565b60405161057f919061344a565b60405180910390f35b34801561059457600080fd5b506105af60048036038101906105aa9190612f7d565b611387565b6040516105bc919061370c565b60405180910390f35b3480156105d157600080fd5b506105ec60048036038101906105e79190612e45565b6113ac565b005b3480156105fa57600080fd5b5061061560048036038101906106109190612f54565b6113c2565b6040516106259493929190613727565b60405180910390f35b34801561063a57600080fd5b5061065560048036038101906106509190612fb9565b6113ff565b005b34801561066357600080fd5b5061067e60048036038101906106799190612dca565b6115fb565b005b34801561068c57600080fd5b5061069561165d565b6040516106a2919061370c565b60405180910390f35b3480156106b757600080fd5b506106c0611662565b6040516106cd919061370c565b60405180910390f35b3480156106e257600080fd5b506106fd60048036038101906106f89190612f54565b611667565b60405161070a919061344a565b60405180910390f35b34801561071f57600080fd5b5061073a60048036038101906107359190612f54565b61177a565b005b34801561074857600080fd5b50610763600480360381019061075e9190612f0f565b6118cf565b604051610770919061370c565b60405180910390f35b610793600480360381019061078e9190612fb9565b61198f565b005b3480156107a157600080fd5b506107bc60048036038101906107b79190612d3f565b611d6d565b6040516107c9919061342f565b60405180910390f35b3480156107de57600080fd5b506107f960048036038101906107f49190612e81565b611e01565b604051610806919061370c565b60405180910390f35b34801561081b57600080fd5b5061083660048036038101906108319190612f54565b611e26565b604051610843919061370c565b60405180910390f35b34801561085857600080fd5b50610861611e3e565b60405161086e919061370c565b60405180910390f35b600281565b61271081565b60007f80ac58cd000000000000000000000000000000000000000000000000000000007bffffffffffffffffffffffffffffffffffffffffffffffffffffffff1916827bffffffffffffffffffffffffffffffffffffffffffffffffffffffff1916148061094d57507f5b5e139f000000000000000000000000000000000000000000000000000000007bffffffffffffffffffffffffffffffffffffffffffffffffffffffff1916827bffffffffffffffffffffffffffffffffffffffffffffffffffffffff1916145b8061095d575061095c82611e4f565b5b9050919050565b60606000805461097390613a23565b80601f016020809104026020016040519081016040528092919081815260200182805461099f90613a23565b80156109ec5780601f106109c1576101008083540402835291602001916109ec565b820191906000526020600020905b8154815290600101906020018083116109cf57829003601f168201915b5050505050905090565b6000610a0182611eb9565b6004600083815260200190815260200160002060009054906101000a900473ffffffffffffffffffffffffffffffffffffffff169050919050565b6000610a4782610ea6565b90508073ffffffffffffffffffffffffffffffffffffffff168373ffffffffffffffffffffffffffffffffffffffff161415610ab8576040517f08c379a0000000000000000000000000000000000000000000000000000000008152600401610aaf9061364c565b60405180910390fd5b8073ffffffffffffffffffffffffffffffffffffffff16610ad7611f04565b73ffffffffffffffffffffffffffffffffffffffff161480610b065750610b0581610b00611f04565b611d6d565b5b610b45576040517f08c379a0000000000000000000000000000000000000000000000000000000008152600401610b3c906135ec565b60405180910390fd5b610b4f8383611f0c565b505050565b80610b5f6009611fc5565b811115610ba1576040517f08c379a0000000000000000000000000000000000000000000000000000000008152600401610b98906136cc565b60405180910390fd5b5050565b601e81565b610bbb610bb5611f04565b82611fd3565b610bfa576040517f08c379a0000000000000000000000000000000000000000000000000000000008152600401610bf1906136ec565b60405180910390fd5b610c05838383612068565b505050565b81610c156009611fc5565b811115610c57576040517f08c379a0000000000000000000000000000000000000000000000000000000008152600401610c4e906136cc565b60405180910390fd5b6000600e6000858152602001908152602001600020600101549050826010600083815260200190815260200160002060003373ffffffffffffffffffffffffffffffffffffffff1673ffffffffffffffffffffffffffffffffffffffff168152602001908152602001600020541015610d05576040517f08c379a0000000000000000000000000000000000000000000000000000000008152600401610cfc906136ac565b60405180910390fd5b826010600083815260200190815260200160002060003373ffffffffffffffffffffffffffffffffffffffff1673ffffffffffffffffffffffffffffffffffffffff1681526020019081526020016000206000828254610d659190613939565b9250508190555082600e60008681526020019081526020016000206003016000828254610d929190613939565b9250508190555082600d60003373ffffffffffffffffffffffffffffffffffffffff1673ffffffffffffffffffffffffffffffffffffffff16815260200190815260200160002060008381526020019081526020016000206000828254610df99190613858565b9250508190555050505050565b600c6020528060005260406000206000915090505481565b610e39838383604051806020016040528060008152506115fb565b505050565b6010602052816000526040600020602052806000526040600020600091509150505481565b600b6020528060005260406000206000915090508060000154908060010154908060020160009054906101000a900460ff16908060030154908060040154905085565b6000806002600084815260200190815260200160002060009054906101000a900473ffffffffffffffffffffffffffffffffffffffff169050600073ffffffffffffffffffffffffffffffffffffffff168173ffffffffffffffffffffffffffffffffffffffff161415610f4f576040517f08c379a0000000000000000000000000000000000000000000000000000000008152600401610f469061362c565b60405180910390fd5b80915050919050565b60008073ffffffffffffffffffffffffffffffffffffffff168273ffffffffffffffffffffffffffffffffffffffff161415610fc9576040517f08c379a0000000000000000000000000000000000000000000000000000000008152600401610fc09061356c565b60405180910390fd5b600360008373ffffffffffffffffffffffffffffffffffffffff1673ffffffffffffffffffffffffffffffffffffffff168152602001908152602001600020549050919050565b8161101b6007611fc5565b81111561105d576040517f08c379a00000000000000000000000000000000000000000000000000000000081526004016110549061366c565b60405180910390fd5b60648211156110a1576040517f08c379a00000000000000000000000000000000000000000000000000000000081526004016110989061368c565b60405180910390fd5b601434116110e4576040517f08c379a00000000000000000000000000000000000000000000000000000000081526004016110db9061346c565b60405180910390fd5b6110ed83610ea6565b73ffffffffffffffffffffffffffffffffffffffff163373ffffffffffffffffffffffffffffffffffffffff161461115a576040517f08c379a0000000000000000000000000000000000000000000000000000000008152600401611151906134ec565b60405180910390fd5b611165333085610baa565b61116f60086122cf565b600061117b6008611fc5565b9050600060648461271061118f91906138df565b61119991906138ae565b90506040518060a00160405280868152602001838152602001600115158152602001826127106111c99190613939565b815260200134815250600b6000848152602001908152602001600020600082015181600001556020820151816001015560408201518160020160006101000a81548160ff021916908315150217905550606082015181600301556080820151816004015590505081600c60008781526020019081526020016000208190555080600d60003373ffffffffffffffffffffffffffffffffffffffff1673ffffffffffffffffffffffffffffffffffffffff1681526020019081526020016000206000878152602001908152602001600020819055505050505050565b806112af6009611fc5565b8111156112f1576040517f08c379a00000000000000000000000000000000000000000000000000000000081526004016112e8906136cc565b60405180910390fd5b5050565b60606001805461130490613a23565b80601f016020809104026020016040519081016040528092919081815260200182805461133090613a23565b801561137d5780601f106113525761010080835404028352916020019161137d565b820191906000526020600020905b81548152906001019060200180831161136057829003601f168201915b5050505050905090565b6011602052816000526040600020602052806000526040600020600091509150505481565b6113be6113b7611f04565b83836122e5565b5050565b600e6020528060005260406000206000915090508060000154908060010154908060020160009054906101000a900460ff16908060030154905084565b8161140a6009611fc5565b81111561144c576040517f08c379a0000000000000000000000000000000000000000000000000000000008152600401611443906136cc565b60405180910390fd5b6000600e6000858152602001908152602001600020600101549050600d60003373ffffffffffffffffffffffffffffffffffffffff1673ffffffffffffffffffffffffffffffffffffffff1681526020019081526020016000206000828152602001908152602001600020548311156114fa576040517f08c379a00000000000000000000000000000000000000000000000000000000081526004016114f1906135ac565b60405180910390fd5b82600d60003373ffffffffffffffffffffffffffffffffffffffff1673ffffffffffffffffffffffffffffffffffffffff1681526020019081526020016000206000838152602001908152602001600020600082825461155a9190613939565b92505081905550826010600086815260200190815260200160002060003373ffffffffffffffffffffffffffffffffffffffff1673ffffffffffffffffffffffffffffffffffffffff16815260200190815260200160002060008282546115c19190613858565b9250508190555082600e600086815260200190815260200160002060030160008282546115ee9190613858565b9250508190555050505050565b61160c611606611f04565b83611fd3565b61164b576040517f08c379a0000000000000000000000000000000000000000000000000000000008152600401611642906136ec565b60405180910390fd5b61165784848484612452565b50505050565b600281565b601481565b606061167282611eb9565b600060066000848152602001908152602001600020805461169290613a23565b80601f01602080910402602001604051908101604052809291908181526020018280546116be90613a23565b801561170b5780601f106116e05761010080835404028352916020019161170b565b820191906000526020600020905b8154815290600101906020018083116116ee57829003601f168201915b50505050509050600061171c6124ae565b9050600081511415611732578192505050611775565b60008251111561176757808260405160200161174f9291906133a4565b60405160208183030381529060405292505050611775565b611770846124c5565b925050505b919050565b600a60009054906101000a900473ffffffffffffffffffffffffffffffffffffffff1673ffffffffffffffffffffffffffffffffffffffff163373ffffffffffffffffffffffffffffffffffffffff16146117d457600080fd5b806117df6007611fc5565b811115611821576040517f08c379a00000000000000000000000000000000000000000000000000000000081526004016118189061366c565b60405180910390fd5b61182b60096122cf565b60006118376009611fc5565b905080600f60008581526020019081526020016000208190555060405180608001604052808281526020018481526020016001151581526020016000815250600e6000838152602001908152602001600020600082015181600001556020820151816001015560408201518160020160006101000a81548160ff02191690831515021790555060608201518160030155905050505050565b60006118db60076122cf565b60006118e76007611fc5565b90506118f3338261252d565b6119418185858080601f016020809104026020016040519081016040528093929190818152602001838380828437600081840152601f19601f82011690508083019250505050505050612707565b3373ffffffffffffffffffffffffffffffffffffffff16817f394567d00aaa992bb8ad351eeef7d57db51a0e54af3d224f7831331df65b4cf560405160405180910390a38091505092915050565b60003411801561199f5750600081115b156119df576040517f08c379a00000000000000000000000000000000000000000000000000000000081526004016119d6906135cc565b60405180910390fd5b6000600b600084815260200190815260200160002060040154600b600085815260200190815260200160002060030154611a1991906138df565b90506000600b60008581526020019081526020016000206040518060a001604052908160008201548152602001600182015481526020016002820160009054906101000a900460ff161515151581526020016003820154815260200160048201548152505090506000341115611b82576000348260800151611a9b9190613858565b83611aa691906138ae565b8260600151611ab59190613939565b905080600b60008781526020019081526020016000206003016000828254611add9190613939565b9250508190555034600b60008781526020019081526020016000206004016000828254611b0a9190613858565b9250508190555080600d60003373ffffffffffffffffffffffffffffffffffffffff1673ffffffffffffffffffffffffffffffffffffffff1681526020019081526020016000206000846000015181526020019081526020016000206000828254611b759190613858565b9250508190555050611d67565b82600d60003373ffffffffffffffffffffffffffffffffffffffff1673ffffffffffffffffffffffffffffffffffffffff1681526020019081526020016000206000600b6000888152602001908152602001600020600001548152602001908152602001600020541015611c2b576040517f08c379a0000000000000000000000000000000000000000000000000000000008152600401611c229061354c565b60405180910390fd5b6000838260600151611c3d9190613858565b83611c4891906138ae565b8260800151611c579190613939565b905080600b60008781526020019081526020016000206004016000828254611c7f9190613939565b925050819055503373ffffffffffffffffffffffffffffffffffffffff166108fc829081150290604051600060405180830381858888f19350505050158015611ccc573d6000803e3d6000fd5b5083600b60008781526020019081526020016000206003016000828254611cf39190613858565b9250508190555083600d60003373ffffffffffffffffffffffffffffffffffffffff1673ffffffffffffffffffffffffffffffffffffffff1681526020019081526020016000206000846000015181526020019081526020016000206000828254611d5e9190613939565b92505081905550505b50505050565b6000600560008473ffffffffffffffffffffffffffffffffffffffff1673ffffffffffffffffffffffffffffffffffffffff16815260200190815260200160002060008373ffffffffffffffffffffffffffffffffffffffff1673ffffffffffffffffffffffffffffffffffffffff16815260200190815260200160002060009054906101000a900460ff16905092915050565b600d602052816000526040600020602052806000526040600020600091509150505481565b600f6020528060005260406000206000915090505481565b6000611e4a6007611fc5565b905090565b60007f01ffc9a7000000000000000000000000000000000000000000000000000000007bffffffffffffffffffffffffffffffffffffffffffffffffffffffff1916827bffffffffffffffffffffffffffffffffffffffffffffffffffffffff1916149050919050565b611ec28161277b565b611f01576040517f08c379a0000000000000000000000000000000000000000000000000000000008152600401611ef89061362c565b60405180910390fd5b50565b600033905090565b816004600083815260200190815260200160002060006101000a81548173ffffffffffffffffffffffffffffffffffffffff021916908373ffffffffffffffffffffffffffffffffffffffff160217905550808273ffffffffffffffffffffffffffffffffffffffff16611f7f83610ea6565b73ffffffffffffffffffffffffffffffffffffffff167f8c5be1e5ebec7d5bd14f71427d1e84f3dd0314c0f7b2291e5b200ac8c7c3b92560405160405180910390a45050565b600081600001549050919050565b600080611fdf83610ea6565b90508073ffffffffffffffffffffffffffffffffffffffff168473ffffffffffffffffffffffffffffffffffffffff16148061202157506120208185611d6d565b5b8061205f57508373ffffffffffffffffffffffffffffffffffffffff16612047846109f6565b73ffffffffffffffffffffffffffffffffffffffff16145b91505092915050565b8273ffffffffffffffffffffffffffffffffffffffff1661208882610ea6565b73ffffffffffffffffffffffffffffffffffffffff16146120de576040517f08c379a00000000000000000000000000000000000000000000000000000000081526004016120d5906134ac565b60405180910390fd5b600073ffffffffffffffffffffffffffffffffffffffff168273ffffffffffffffffffffffffffffffffffffffff16141561214e576040517f08c379a00000000000000000000000000000000000000000000000000000000081526004016121459061350c565b60405180910390fd5b6121598383836127e7565b612164600082611f0c565b6001600360008573ffffffffffffffffffffffffffffffffffffffff1673ffffffffffffffffffffffffffffffffffffffff16815260200190815260200160002060008282546121b49190613939565b925050819055506001600360008473ffffffffffffffffffffffffffffffffffffffff1673ffffffffffffffffffffffffffffffffffffffff168152602001908152602001600020600082825461220b9190613858565b92505081905550816002600083815260200190815260200160002060006101000a81548173ffffffffffffffffffffffffffffffffffffffff021916908373ffffffffffffffffffffffffffffffffffffffff160217905550808273ffffffffffffffffffffffffffffffffffffffff168473ffffffffffffffffffffffffffffffffffffffff167fddf252ad1be2c89b69c2b068fc378daa952ba7f163c4a11628f55a4df523b3ef60405160405180910390a46122ca8383836127ec565b505050565b6001816000016000828254019250508190555050565b8173ffffffffffffffffffffffffffffffffffffffff168373ffffffffffffffffffffffffffffffffffffffff161415612354576040517f08c379a000000000000000000000000000000000000000000000000000000000815260040161234b9061352c565b60405180910390fd5b80600560008573ffffffffffffffffffffffffffffffffffffffff1673ffffffffffffffffffffffffffffffffffffffff16815260200190815260200160002060008473ffffffffffffffffffffffffffffffffffffffff1673ffffffffffffffffffffffffffffffffffffffff16815260200190815260200160002060006101000a81548160ff0219169083151502179055508173ffffffffffffffffffffffffffffffffffffffff168373ffffffffffffffffffffffffffffffffffffffff167f17307eab39ab6107e8899845ad3d59bd9653f200f220920489ca2b5937696c3183604051612445919061342f565b60405180910390a3505050565b61245d848484612068565b612469848484846127f1565b6124a8576040517f08c379a000000000000000000000000000000000000000000000000000000000815260040161249f9061348c565b60405180910390fd5b50505050565b606060405180602001604052806000815250905090565b60606124d082611eb9565b60006124da6124ae565b905060008151116124fa5760405180602001604052806000815250612525565b8061250484612988565b6040516020016125159291906133a4565b6040516020818303038152906040525b915050919050565b600073ffffffffffffffffffffffffffffffffffffffff168273ffffffffffffffffffffffffffffffffffffffff16141561259d576040517f08c379a00000000000000000000000000000000000000000000000000000000081526004016125949061360c565b60405180910390fd5b6125a68161277b565b156125e6576040517f08c379a00000000000000000000000000000000000000000000000000000000081526004016125dd906134cc565b60405180910390fd5b6125f2600083836127e7565b6001600360008473ffffffffffffffffffffffffffffffffffffffff1673ffffffffffffffffffffffffffffffffffffffff16815260200190815260200160002060008282546126429190613858565b92505081905550816002600083815260200190815260200160002060006101000a81548173ffffffffffffffffffffffffffffffffffffffff021916908373ffffffffffffffffffffffffffffffffffffffff160217905550808273ffffffffffffffffffffffffffffffffffffffff16600073ffffffffffffffffffffffffffffffffffffffff167fddf252ad1be2c89b69c2b068fc378daa952ba7f163c4a11628f55a4df523b3ef60405160405180910390a4612703600083836127ec565b5050565b6127108261277b565b61274f576040517f08c379a00000000000000000000000000000000000000000000000000000000081526004016127469061358c565b60405180910390fd5b80600660008481526020019081526020016000209080519060200190612776929190612b58565b505050565b60008073ffffffffffffffffffffffffffffffffffffffff166002600084815260200190815260200160002060009054906101000a900473ffffffffffffffffffffffffffffffffffffffff1673ffffffffffffffffffffffffffffffffffffffff1614159050919050565b505050565b505050565b60006128128473ffffffffffffffffffffffffffffffffffffffff16612b35565b1561297b578373ffffffffffffffffffffffffffffffffffffffff1663150b7a0261283b611f04565b8786866040518563ffffffff1660e01b815260040161285d94939291906133e3565b602060405180830381600087803b15801561287757600080fd5b505af19250505080156128a857506040513d601f19601f820116820180604052508101906128a59190612ee6565b60015b61292b573d80600081146128d8576040519150601f19603f3d011682016040523d82523d6000602084013e6128dd565b606091505b50600081511415612923576040517f08c379a000000000000000000000000000000000000000000000000000000000815260040161291a9061348c565b60405180910390fd5b805181602001fd5b63150b7a0260e01b7bffffffffffffffffffffffffffffffffffffffffffffffffffffffff1916817bffffffffffffffffffffffffffffffffffffffffffffffffffffffff191614915050612980565b600190505b949350505050565b606060008214156129d0576040518060400160405280600181526020017f30000000000000000000000000000000000000000000000000000000000000008152509050612b30565b600082905060005b60008214612a025780806129eb90613a86565b915050600a826129fb91906138ae565b91506129d8565b60008167ffffffffffffffff811115612a44577f4e487b7100000000000000000000000000000000000000000000000000000000600052604160045260246000fd5b6040519080825280601f01601f191660200182016040528015612a765781602001600182028036833780820191505090505b5090505b60008514612b2957600182612a8f9190613939565b9150600a85612a9e9190613acf565b6030612aaa9190613858565b60f81b818381518110612ae6577f4e487b7100000000000000000000000000000000000000000000000000000000600052603260045260246000fd5b60200101907effffffffffffffffffffffffffffffffffffffffffffffffffffffffffffff1916908160001a905350600a85612b2291906138ae565b9450612a7a565b8093505050505b919050565b6000808273ffffffffffffffffffffffffffffffffffffffff163b119050919050565b828054612b6490613a23565b90600052602060002090601f016020900481019282612b865760008555612bcd565b82601f10612b9f57805160ff1916838001178555612bcd565b82800160010185558215612bcd579182015b82811115612bcc578251825591602001919060010190612bb1565b5b509050612bda9190612bde565b5090565b5b80821115612bf7576000816000905550600101612bdf565b5090565b6000612c0e612c09846137e4565b6137bf565b905082815260208101848484011115612c2657600080fd5b612c318482856139e1565b509392505050565b600081359050612c4881614080565b92915050565b600081359050612c5d81614097565b92915050565b600081359050612c72816140ae565b92915050565b600081519050612c87816140ae565b92915050565b600082601f830112612c9e57600080fd5b8135612cae848260208601612bfb565b91505092915050565b60008083601f840112612cc957600080fd5b8235905067ffffffffffffffff811115612ce257600080fd5b602083019150836001820283011115612cfa57600080fd5b9250929050565b600081359050612d10816140c5565b92915050565b600060208284031215612d2857600080fd5b6000612d3684828501612c39565b91505092915050565b60008060408385031215612d5257600080fd5b6000612d6085828601612c39565b9250506020612d7185828601612c39565b9150509250929050565b600080600060608486031215612d9057600080fd5b6000612d9e86828701612c39565b9350506020612daf86828701612c39565b9250506040612dc086828701612d01565b9150509250925092565b60008060008060808587031215612de057600080fd5b6000612dee87828801612c39565b9450506020612dff87828801612c39565b9350506040612e1087828801612d01565b925050606085013567ffffffffffffffff811115612e2d57600080fd5b612e3987828801612c8d565b91505092959194509250565b60008060408385031215612e5857600080fd5b6000612e6685828601612c39565b9250506020612e7785828601612c4e565b9150509250929050565b60008060408385031215612e9457600080fd5b6000612ea285828601612c39565b9250506020612eb385828601612d01565b9150509250929050565b600060208284031215612ecf57600080fd5b6000612edd84828501612c63565b91505092915050565b600060208284031215612ef857600080fd5b6000612f0684828501612c78565b91505092915050565b60008060208385031215612f2257600080fd5b600083013567ffffffffffffffff811115612f3c57600080fd5b612f4885828601612cb7565b92509250509250929050565b600060208284031215612f6657600080fd5b6000612f7484828501612d01565b91505092915050565b60008060408385031215612f9057600080fd5b6000612f9e85828601612d01565b9250506020612faf85828601612c39565b9150509250929050565b60008060408385031215612fcc57600080fd5b6000612fda85828601612d01565b9250506020612feb85828601612d01565b9150509250929050565b612ffe8161396d565b82525050565b61300d8161397f565b82525050565b600061301e82613815565b613028818561382b565b93506130388185602086016139f0565b61304181613bbc565b840191505092915050565b600061305782613820565b613061818561383c565b93506130718185602086016139f0565b61307a81613bbc565b840191505092915050565b600061309082613820565b61309a818561384d565b93506130aa8185602086016139f0565b80840191505092915050565b60006130c3601d8361383c565b91506130ce82613bcd565b602082019050919050565b60006130e660328361383c565b91506130f182613bf6565b604082019050919050565b600061310960258361383c565b915061311482613c45565b604082019050919050565b600061312c601c8361383c565b915061313782613c94565b602082019050919050565b600061314f601c8361383c565b915061315a82613cbd565b602082019050919050565b600061317260248361383c565b915061317d82613ce6565b604082019050919050565b600061319560198361383c565b91506131a082613d35565b602082019050919050565b60006131b8601f8361383c565b91506131c382613d5e565b602082019050919050565b60006131db60298361383c565b91506131e682613d87565b604082019050919050565b60006131fe602e8361383c565b915061320982613dd6565b604082019050919050565b6000613221601d8361383c565b915061322c82613e25565b602082019050919050565b600061324460268361383c565b915061324f82613e4e565b604082019050919050565b6000613267603e8361383c565b915061327282613e9d565b604082019050919050565b600061328a60208361383c565b915061329582613eec565b602082019050919050565b60006132ad60188361383c565b91506132b882613f15565b602082019050919050565b60006132d060218361383c565b91506132db82613f3e565b604082019050919050565b60006132f360108361383c565b91506132fe82613f8d565b602082019050919050565b6000613316601b8361383c565b915061332182613fb6565b602082019050919050565b6000613339601a8361383c565b915061334482613fdf565b602082019050919050565b600061335c600f8361383c565b915061336782614008565b602082019050919050565b600061337f602e8361383c565b915061338a82614031565b604082019050919050565b61339e816139d7565b82525050565b60006133b08285613085565b91506133bc8284613085565b91508190509392505050565b60006020820190506133dd6000830184612ff5565b92915050565b60006080820190506133f86000830187612ff5565b6134056020830186612ff5565b6134126040830185613395565b81810360608301526134248184613013565b905095945050505050565b60006020820190506134446000830184613004565b92915050565b60006020820190508181036000830152613464818461304c565b905092915050565b60006020820190508181036000830152613485816130b6565b9050919050565b600060208201905081810360008301526134a5816130d9565b9050919050565b600060208201905081810360008301526134c5816130fc565b9050919050565b600060208201905081810360008301526134e58161311f565b9050919050565b6000602082019050818103600083015261350581613142565b9050919050565b6000602082019050818103600083015261352581613165565b9050919050565b6000602082019050818103600083015261354581613188565b9050919050565b60006020820190508181036000830152613565816131ab565b9050919050565b60006020820190508181036000830152613585816131ce565b9050919050565b600060208201905081810360008301526135a5816131f1565b9050919050565b600060208201905081810360008301526135c581613214565b9050919050565b600060208201905081810360008301526135e581613237565b9050919050565b600060208201905081810360008301526136058161325a565b9050919050565b600060208201905081810360008301526136258161327d565b9050919050565b60006020820190508181036000830152613645816132a0565b9050919050565b60006020820190508181036000830152613665816132c3565b9050919050565b60006020820190508181036000830152613685816132e6565b9050919050565b600060208201905081810360008301526136a581613309565b9050919050565b600060208201905081810360008301526136c58161332c565b9050919050565b600060208201905081810360008301526136e58161334f565b9050919050565b6000602082019050818103600083015261370581613372565b9050919050565b60006020820190506137216000830184613395565b92915050565b600060808201905061373c6000830187613395565b6137496020830186613395565b6137566040830185613004565b6137636060830184613395565b95945050505050565b600060a0820190506137816000830188613395565b61378e6020830187613395565b61379b6040830186613004565b6137a86060830185613395565b6137b56080830184613395565b9695505050505050565b60006137c96137da565b90506137d58282613a55565b919050565b6000604051905090565b600067ffffffffffffffff8211156137ff576137fe613b8d565b5b61380882613bbc565b9050602081019050919050565b600081519050919050565b600081519050919050565b600082825260208201905092915050565b600082825260208201905092915050565b600081905092915050565b6000613863826139d7565b915061386e836139d7565b9250827fffffffffffffffffffffffffffffffffffffffffffffffffffffffffffffffff038211156138a3576138a2613b00565b5b828201905092915050565b60006138b9826139d7565b91506138c4836139d7565b9250826138d4576138d3613b2f565b5b828204905092915050565b60006138ea826139d7565b91506138f5836139d7565b9250817fffffffffffffffffffffffffffffffffffffffffffffffffffffffffffffffff048311821515161561392e5761392d613b00565b5b828202905092915050565b6000613944826139d7565b915061394f836139d7565b92508282101561396257613961613b00565b5b828203905092915050565b6000613978826139b7565b9050919050565b60008115159050919050565b60007fffffffff0000000000000000000000000000000000000000000000000000000082169050919050565b600073ffffffffffffffffffffffffffffffffffffffff82169050919050565b6000819050919050565b82818337600083830152505050565b60005b83811015613a0e5780820151818401526020810190506139f3565b83811115613a1d576000848401525b50505050565b60006002820490506001821680613a3b57607f821691505b60208210811415613a4f57613a4e613b5e565b5b50919050565b613a5e82613bbc565b810181811067ffffffffffffffff82111715613a7d57613a7c613b8d565b5b80604052505050565b6000613a91826139d7565b91507fffffffffffffffffffffffffffffffffffffffffffffffffffffffffffffffff821415613ac457613ac3613b00565b5b600182019050919050565b6000613ada826139d7565b9150613ae5836139d7565b925082613af557613af4613b2f565b5b828206905092915050565b7f4e487b7100000000000000000000000000000000000000000000000000000000600052601160045260246000fd5b7f4e487b7100000000000000000000000000000000000000000000000000000000600052601260045260246000fd5b7f4e487b7100000000000000000000000000000000000000000000000000000000600052602260045260246000fd5b7f4e487b7100000000000000000000000000000000000000000000000000000000600052604160045260246000fd5b6000601f19601f8301169050919050565b7f4e6f20696e697469616c206c69717569646974792070726f7669646564000000600082015250565b7f4552433732313a207472616e7366657220746f206e6f6e20455243373231526560008201527f63656976657220696d706c656d656e7465720000000000000000000000000000602082015250565b7f4552433732313a207472616e736665722066726f6d20696e636f72726563742060008201527f6f776e6572000000000000000000000000000000000000000000000000000000602082015250565b7f4552433732313a20746f6b656e20616c7265616479206d696e74656400000000600082015250565b7f4f6e6c79206f776e65722063616e206c69737420616e20617373657400000000600082015250565b7f4552433732313a207472616e7366657220746f20746865207a65726f2061646460008201527f7265737300000000000000000000000000000000000000000000000000000000602082015250565b7f4552433732313a20617070726f766520746f2063616c6c657200000000000000600082015250565b7f4e6f7420656e6f756768206672616374696f6e7320696e2062616c616e636500600082015250565b7f4552433732313a2061646472657373207a65726f206973206e6f74206120766160008201527f6c6964206f776e65720000000000000000000000000000000000000000000000602082015250565b7f45524337323155524953746f726167653a2055524920736574206f66206e6f6e60008201527f6578697374656e7420746f6b656e000000000000000000000000000000000000602082015250565b7f496e73756666696369656e74206672616374696f6e2062616c616e6365000000600082015250565b7f496e76616c69642063616c6c2e2043616e6e6f7420646563696465207768696360008201527f6820736964650000000000000000000000000000000000000000000000000000602082015250565b7f4552433732313a20617070726f76652063616c6c6572206973206e6f7420746f60008201527f6b656e206f776e6572206e6f7220617070726f76656420666f7220616c6c0000602082015250565b7f4552433732313a206d696e7420746f20746865207a65726f2061646472657373600082015250565b7f4552433732313a20696e76616c696420746f6b656e2049440000000000000000600082015250565b7f4552433732313a20617070726f76616c20746f2063757272656e74206f776e6560008201527f7200000000000000000000000000000000000000000000000000000000000000602082015250565b7f496e76616c696420746f6b656e20496400000000000000000000000000000000600082015250565b7f43616e6e6f7420636c61696d206d6f7265207468616e20313030250000000000600082015250565b7f4e6f7420656e6f7567682062616c616e636520696e206661726d000000000000600082015250565b7f496e76616c6964206661726d2069640000000000000000000000000000000000600082015250565b7f4552433732313a2063616c6c6572206973206e6f7420746f6b656e206f776e6560008201527f72206e6f7220617070726f766564000000000000000000000000000000000000602082015250565b6140898161396d565b811461409457600080fd5b50565b6140a08161397f565b81146140ab57600080fd5b50565b6140b78161398b565b81146140c257600080fd5b50565b6140ce816139d7565b81146140d957600080fd5b5056fea2646970667358221220d58a65d4f823298a71e08b96e91e0f0e77fa5fde552e999ccc3b51facb246f0564736f6c63430008040033",
  "linkReferences": {},
  "deployedLinkReferences": {}
}